:020000040800F2
:1000000000000220A1240008110C00081D0C0008AB
:10001000290C0008350C0008410C00080000000005
:10002000000000000000000000000000F1240008B3
:10003000F1240008000000004D030008E50400085A
:10004000F1240008F1240008F1240008F12400083C
:10005000F1240008F1240008F1240008F12400082C
:10006000F1240008F1240008F1240008F12400081C
:10007000F1240008F1240008F1240008F12400080C
:10008000F1240008F1240008F1240008F1240008FC
:10009000F1240008F1240008F1240008F1240008EC
:1000A000F1240008F1240008F1240008F1240008DC
:1000B000F1240008F1240008F1240008F1240008CC
:1000C000F1240008F1240008F1240008F1240008BC
:1000D000F1240008F1240008F1240008F1240008AC
:1000E000F1240008F124000800000000F1240008B9
:1000F000F1240008F1240008F1240008F12400088C
:10010000F1240008F1240008F1240008F12400087B
:10011000F1240008F1240008F1240008F12400086B
:10012000F1240008F1240008F1240008F12400085B
:10013000F1240008F1240008F1240008F12400084B
:1001400000000000000000000000000000000000AF
:10015000F1240008F1240008F1240008F12400082B
:10016000F1240008F1240008F1240008F12400081B
:10017000F1240008F1240008F12400080000000028
:10018000F1240008F1240008F1240008F1240008FB
:10019000F1240008F1240008F1240008F1240008EB
:1001A000F1240008F1240008F1240008F1240008DB
:1001B000F1240008F1240008F1240008F1240008CB
:1001C000F1240008F1240008F1240008F1240008BB
:1001D000F1240008F1240008F1240008F1240008AB
:1001E000F1240008F1240008F1240008F12400089B
:1001F000F1240008F1240008F1240008F12400088B
:10020000F1240008F1240008F1240008F12400087A
:10021000F1240008F1240008F1240008F12400086A
:10022000F1240008F1240008F12400080000000077
:10023000F1240008F124000800000000F124000867
:10024000F1240008F1240008F1240008F12400083A
:10025000F1240008F1240008F1240008F12400082A
:10026000F1240008F1240008F1240008F12400081A
:10027000F1240008F1240008F12400080000000027
:10028000F1240008F1240008F12400080000000017
:0802900000000000F124000849
:1002A00010B5054C237833B9044B13B10448AFF3B0
:1002B00000800123237010BDDC010020000000003D
:1002C000D44F000808B5034B1BB103490348AFF3F3
:1002D000008008BD00000000E0010020D44F0008AD
:1002E000026922F00702A2F144026FF002031360D8
:1002F0004FF0000353609360D360136153619361C7
:10030000D361136253629362D362136353634FF0FA
:10031000FF339363D1634FF080731364826070473F
:100320004FF000002A4A1060EFF3148020F0040020
:1003300080F3148862B64FF080504FF0E021C1F88E
:10034000040DBFF34F8FBFF36F8FFEE72148224AA2
:100350004FF00003016891B10360EFF3098C2CE9C1
:10036000F00F1EF0100F01D12CED108A1B4C4CF831
:1003700004ED2568C1F808C00DB18D61236072B627
:100380001168B1B1016062B64F68144C8D6907F114
:1003900001074F602560D1F808C05CF804EB1EF03F
:1003A000100F01D1BCEC108ABCE8F00F8CF3098867
:1003B000704772B61168016009B962B6F9E74FF08B
:1003C00000674FF0E028C8F8047D62B6DCE77047AC
:1003D000F80A0020E80A0020EC0A0020E4100020BF
:1003E0002249086800F101000860214B1A683AB1FF
:1003F000A2F101021A601AB91E4B4FF001001860F9
:100400001D490868026822B11C4B4FF001021A60B6
:1004100008E000F104001A4B1A68904201D1194B10
:1004200018680860134B1A6812B914490868D0B1EB
:100430002DE901401149086808B101F099FC0D4B04
:100440001A6872B101F0E6FE0F48016849B90F4819
:1004500001680F4A13680F484FF08052994200D04C
:100460000260BDE80140BFF34F8F7047300C0020A1
:10047000E4100020940B00208C0B0020900B002037
:100480001C0C0020200C0020F80A0020E80A0020A4
:10049000EC0A002004ED00E0000000000000000075
:1004A00072B64FF0E0201249C0F8081D11481049FB
:1004B000096801601048016841F0010101604FF0D6
:1004C000E0200E4941614FF0070101614FF000014A
:1004D000C0F8181D4FF07F41C0F81C1D0849C0F836
:1004E000201D704701B5FFF77BFFBDE80140704755
:1004F00000000008800B0020001000E0FF083D0015
:100500000000FF40034613F8012B002AFBD1181A04
:1005100001387047000000000000000000000000EB
:1005200001F0FF01102A2BDB10F0070F08D010F8A4
:10053000013B013A8B422DD010F0070F42B3F6D1A8
:10054000F0B441EA012141EA014122F007047FF0C1
:1005500000070023F0E80256083C85EA010586EA18
:10056000010685FA47F5A3FA87F586FA47F6A5FA54
:1005700087F68EB9EED1F0BC01F0FF0102F0070260
:1005800032B110F8013B013A83EA010313B1F8D10B
:100590000020704701387047002D06BF35460338EC
:1005A000073815F0010F07D1013015F4807F02BF25
:1005B000013015F4C03F0130F0BC0138704700BF76
:1005C00010B500F095FA00F04DFC1BA3D3E9002311
:1005D000154802F0FFFB002303E003F140421370D3
:1005E0000133632BF9DD0023632B09DC03F1404267
:1005F00012789A4201D10133F6E70C4802F070FC00
:100600000B4802F06DFC002408E02146094802F086
:10061000E1FB4FF47A7000F0BBFA0134092CF4DDF1
:1006200001F0B8FBFEE700BFF04F00080C500008D7
:10063000205000083450000800000000FA21094052
:1006400008B500F00BF808BD08B5034802F048FCF7
:10065000642001F0FFF9F8E73850000800B589B0D0
:10066000B023069301230593002304931F220392D2
:1006700002924FF400620192044A0092044A054932
:10068000054801F0D3FA09B05DF804FBF801002039
:100690004906000844500008F8090020BFF35F8FA6
:1006A000334B0022C3F89420C3F898204FF0105227
:1006B000C3F89C202F4AC3F8A0200122C3F8982039
:1006C0004FF04042C3F89C202B4AC3F8A0200522DB
:1006D000C3F89420BFF34F8FBFF36F8F5B6913F4A0
:1006E000003F13D1BFF34F8FBFF36F8F204B00221A
:1006F000C3F85022BFF34F8FBFF36F8F5A6942F494
:1007000000325A61BFF34F8FBFF36F8F184B5B6995
:1007100013F4803F2BD110B4154B0022C3F8842072
:10072000BFF34F8FD3F88040C4F34E3000E018463B
:10073000C4F3C90243F6E07303EA401343EA827349
:100740000B49C1F860321346013A002BF2D1431E27
:100750000028ECD1BFF34F8F4B6943F480334B61DA
:10076000BFF34F8FBFF36F8F5DF8044B7047704737
:1007700000ED00E02500020331000203074AD2F831
:10078000FC3043F08073C2F8FC30054B00225A6005
:100790001A6842F001021A60704700BF00ED00E0E5
:1007A000001000E010B58A4A136823F00F0343F0ED
:1007B00002031360864B1B6803F00F03022BF9D171
:1007C000844AD36823F0070343F00203D36093699C
:1007D00043F4404393617F4B9B6903F44043B3F57B
:1007E000404FF8D17C4A136843F4803313607A4B4E
:1007F0001B6813F4003FFAD0774B9A6A22F0030289
:1008000042F002029A62DA6A22F00C0242F0080216
:10081000DA62DA6A22F00202DA629A6A22F47C72FE
:1008200042F050029A62196B6C4A0A4042F09F02F1
:100830001A631A6B22F47E4242F400721A631A6B36
:1008400022F4FE0242F440321A631A6B22F0FE4296
:1008500042F080721A63DA6A42F48032DA621A680D
:1008600042F080721A605C4B1B6813F0007FFAD074
:10087000594BDA6A22F0C002DA62DA6A22F0200208
:10088000DA629A6A22F47C3242F4C8329A629A6B33
:100890005249114040F2F7120A439A639A6B22F4CC
:1008A0007E4242F440629A639A6B22F4FE0242F462
:1008B00080329A639A6B22F0FE4242F0A0529A6311
:1008C000DA6A42F40022DA62DA6A42F40022DA6278
:1008D000DA6A42F40012DA621A6842F080621A6040
:1008E0003D4B1B6813F0006FFAD03B4BDA6A42F4C1
:1008F0004062DA62DA6A22F40072DA629A6A22F0FC
:100900007C7242F000729A62196C344A0A4042F0DA
:100910007F021A641A6C22F47E4242F400721A6456
:100920001A6C22F4FE0242F480321A641A6C22F02D
:10093000FE4242F000721A64DA6A42F08072DA62B1
:100940001A6842F080521A60234B1B6813F0005F54
:10095000FAD0214CA36923F00F0343F00803A361ED
:10096000236923F0070343F003032361A36923F4FE
:100970007063A3611A4801F067F8A36923F00F03BD
:1009800043F00803A361E36923F0700343F04003DD
:10099000E361E36923F4E06343F48063E361A36903
:1009A00023F0700343F04003A361236A23F0700334
:1009B00043F0400323620B4AD2F8543423F0380347
:1009C000C2F85434E36C23F00303E36410BD00BFAA
:1009D00000200052004802580044025800FEFFFF69
:1009E0000084D7170040025800B589B00F4BD3F8E8
:1009F000E02042F08002C3F8E020D3F8E03003F0BA
:100A000080030193019B00230293039304930593B6
:100A100006930793802302930123039302A90448BA
:100A200000F0F6FC09B05DF804FB00BF004402587A
:100A3000001C025810B590B02A4BD3F8E02042F0C9
:100A40000102C3F8E020D3F8E02002F00102019295
:100A5000019AD3F8F02042F01002C3F8F020D3F846
:100A6000F03003F010030093009B00240A940B94D1
:100A70000C940D940E940F944FF400730A93022378
:100A80000B9307230F930AA9174800F0C1FC2022FB
:100A9000214602A801F052FD4FF4E13303930823ED
:100AA000079304F1804404F588340DEB03012046DC
:100AB00000F054FB236823F000532360636823F4A1
:100AC00090436360A36823F02A03A360236843F084
:100AD00001032360054BDB6913F4001FFAD010B04B
:100AE00010BD00BF00440258000002580010014031
:100AF00008B50B49CA6822F4E0621204120C094BD3
:100B00001343CB60FFF7CAFDFFF74CFE00F01CFA61
:100B1000FFF734FEFFF78EFFFFF766FF08BD00BF4B
:100B200000ED00E00003FA05144BA3FB003C4FEA84
:100B30001C5C134B03FB1C0007E0124B5968114B64
:100B40005B685B1A104A9342F9D963460CF1FF3C8B
:100B5000002BF2D180B14FF47A7200FB02F2094B04
:100B600059680A4BA3FB0232920852000132054B2E
:100B70005B685B1A9A42FAD8704700BF83DE1B435A
:100B800000093D00001000E000105E5FCDCCCCCC31
:100B900010B504E04FF47A70FFF7C6FF2046441EFC
:100BA0000028F7D110BD000008B504460A4802F03D
:100BB00011F91CB12146094802F00CF908494B69AA
:100BC0001A0402F40002DB4303F0800313438B6139
:100BD000FA20FFF7DDFFF1E75050000864500008ED
:100BE000001C02581046002393420DDA30B4CD5C4D
:100BF000064CA562054CE46914F0400FFAD00133AD
:100C00008342F4DB30BC7047704700BF00100140E6
:100C100008B50148FFF7C8FF6850000808B501484B
:100C2000FFF7C2FF8450000808B50148FFF7BCFF7A
:100C3000A450000808B50148FFF7B6FFC8500008E7
:100C400008B50148FFF7B0FFF850000800B58DB0B7
:100C5000374BD3F8E02042F00402C3F8E020D3F889
:100C6000E02002F004020592059AD3F8E02042F059
:100C70000802C3F8E020D3F8E02002F00802049252
:100C8000049AD3F8E02042F01002C3F8E020D3F831
:100C9000E02002F010020392039AD3F8E02042F021
:100CA0002002C3F8E020D3F8E02002F020020292F4
:100CB000029AD3F8E02042F04002C3F8E020D3F8D3
:100CC000E03003F040030193019B00230693079358
:100CD000089309930A930B93022307930323089322
:100CE0000C230B930D23069306A9124800F090FBEA
:100CF0004CF20373069306A90F4800F089FB4FF6E8
:100D00008373069306A90D4800F082FB4FF63F035C
:100D1000069306A90A4800F07BFB48F237130693B6
:100D200006A9084800F074FB0DB05DF804FB00BF95
:100D30000044025800080258000C025800100258E3
:100D4000001402580018025830B593B0204BD3F865
:100D5000D42042F48052C3F8D420D3F8D43003F422
:100D600080530093009B2822002108A801F0E6FB95
:100D70000123099308250A9510230B9340230C9314
:100D80004FF480730D934FF400630F934FF480532F
:100D900010934FF4005311930E4C08A9204600F015
:100DA00087FA0223019302950522039207220492F7
:100DB000059306930793089A01A9204600F0B2FA1A
:100DC000054A136843F00043136013B030BD00BF01
:100DD000004402584041005200400052F0B585B036
:100DE0000024009401940294039401260096102795
:100DF000019702961A4D4FF480526946284600F03A
:100E0000E5FA3046FFF7C4FE0223009301970296ED
:100E100003944FF480526946284600F0D7FA032322
:100E2000009301970823029303944FF4805269467C
:100E3000284600F0CBFA042300930197029640F273
:100E4000232303934FF480526946284600F0BEFAEC
:100E500040F2F921284600F0D1FA05B0F0BD00BFFC
:100E60004041005208B5FFF7F1FEFFF76DFFFFF7B5
:100E7000B5FF08BD294AD2F8883043F47003C2F8A0
:100E80008830274B1B6803F00F03062B06D8244A33
:100E9000136823F00F0343F007031360214B1A6814
:100EA00042F001021A6000221A6119681E4A0A40C3
:100EB0001A601B4B1B6813F0080F06D0184A136802
:100EC00023F00F0343F007031360164B00229A61CF
:100ED000DA611A62154999621549D962154919638F
:100EE0005A639963DA6319645A64196821F480219A
:100EF00019601A66104B1A68104B1340B3F1005F6B
:100F000003D20F4B0122C3F808210E4B43F2D20249
:100F10001A60024B4FF000629A60704700ED00E0EB
:100F200000200052004402587FEDF6EA000202025F
:100F30000000FF01800201010010005C0000FFFFC3
:100F4000008000510040005210B47A4B1B6903F03E
:100F50003803182B00F2E580DFE813F01B00E300F4
:100F6000E300E300E300E300E300E3001900E30033
:100F7000E300E300E300E300E300E300EA00E30052
:100F8000E300E300E300E300E300E30037006A4A24
:100F900005E0684B1B68C3F3C103684ADA40654843
:100FA0008369C3F303236649CB5CDA40836903F0AA
:100FB0000F03CB5C03F01F0322FA03F361490B60BC
:100FC000614B1A605DF8044B70475A49886A00F01B
:100FD00003008C6AC4F30512CB6A03F0010C4B6B5F
:100FE000C3F3CC030CFB03F307EE903AF8EE677AF9
:100FF00014F47C7FD3D0012859D0022874D018B3C0
:101000004C480168C1F3C1014C4BCB4007EE103A8C
:10101000F8EE476A07EE102AB8EE476A86EE867A3F
:10102000036BC3F3080306EE903AF8EE666A9FED91
:10103000476A67EE867A76EEA77AF7EE006A77EE71
:10104000A67A27EE277A22E008460968C1F3C10193
:101050003A4BCB4007EE103AF8EE476A07EE102AFB
:10106000B8EE476A86EE867A036BC3F3080306EE92
:10107000903AF8EE666A9FED356A67EE867A76EE0C
:10108000A77AF7EE006A77EEA67A27EE277A294B41
:101090001B6BC3F34623013307EE903AF8EE677AF1
:1010A000C7EE276AFCEEE67A17EE902A77E707EE9E
:1010B000102AF8EE476A9FED266A86EE267A1D4BC7
:1010C0001B6BC3F3080306EE903AF8EE666A9FEDD9
:1010D0001F6A67EE867A76EEA77AF7EE006A77EEF9
:1010E000A67A27EE277AD2E707EE102AF8EE476AAB
:1010F0009FED186A86EE267A0E4B1B6BC3F308032E
:1011000006EE903AF8EE666A9FED106A67EE867A10
:1011100076EEA77AF7EE006A77EEA67A27EE277AC0
:10112000B5E7044B1B68C3F3C103044ADA4036E752
:10113000094A34E70044025800093D000090D003FA
:101140002C5100080400002000000020000000399D
:101150000024744A20BCBE4B40787D0138B503683A
:1011600013F0010F40F08A8004460D460368444A9C
:101170001A408B6809690B4369690B43E9690B43A2
:1011800013430360EB68426822F440521343436008
:10119000AB69826822F4407213438360394B9842F2
:1011A00016D0394B98421CD0384B98421DD0384B42
:1011B00098421ED0374B98421FD0374B984220D0D0
:1011C000364B984221D0364B984222D001204EE037
:1011D000344800F093FB002848D06A68EAB901203F
:1011E00045E0314800F08AFBF5E72F4800F086FB28
:1011F000F1E72D4800F082FBEDE72B4800F07EFB85
:10120000E9E7284800F07AFBE5E7274800F076FB9D
:10121000E1E7254800F072FBDDE72B68E9690B2B5D
:101220000FD872B1B1F5004F0DD0DBB21F4951F8A4
:101230002330B0FBF3F303EB5203B3FBF2F39BB2A7
:10124000E360002013E0DBB2184951F82330B0FB13
:10125000F3F0530803EB4000B0FBF2F34FF6F072EB
:101260001A40C3F342031343E360EAE70120E26A52
:1012700022F00F022B881343E36238BD0120FCE704
:10128000F369FFEF001001400044004000480040B7
:10129000004C004000500040001401400078004025
:1012A000007C004008030007080000073C510008CC
:1012B00010B40B68CBB90368194A1A404B688C68A4
:1012C0002343CC6823430C6923434C6923438C6933
:1012D0002343CC6923430C6A2343496A0B431343DA
:1012E000036000205DF8044B7047036823F4F84363
:1012F000CA690C6A22434C6A224313430360436861
:10130000074A1A404B688C682343CC6823430C6916
:1013100023434C69234389690B4313434360E0E74C
:101320000080FFFF10B43ABB826802F070420B6885
:10133000013B4C6804F1FF3C43EA0C138C6804F158
:10134000FF3C43EA0C23CC6804F1FF3C43EA0C3336
:101350000C6904F1FF3C43EA0C434C6904F1FF3C87
:1013600043EA0C538969013943EA016313438360FB
:1013700000205DF8044B70478368134A1A40CB681D
:1013800003F1FF3C4B69013B1B0543EA0C3313435C
:101390008360C26802F070420B68013B4C6804F144
:1013A000FF3C43EA0C138C6804F1FF3C43EA0C2336
:1013B0000C6904F1FF3C43EA0C438969013943EAB3
:1013C00001631343C360D3E7FF0F0FFF10B403693A
:1013D000094A1A400B684C6823438C6804F1FF3CAF
:1013E00043EA4C13C96843EA4123134303610020D5
:1013F0005DF8044B704700BF0000C0FF4269034B1B
:10140000134043EA410343610020704701C0FFFFDE
:1014100070B50A6892FAA2F212B1B2FA82F21BE037
:10142000202219E0C46803FB03FE0EEB4E056FEAB1
:10143000050C24EA05040D690EFB05F52C43C46078
:101440004C68022C2DD04C6803680CEA03030EFB99
:1014500004F42343036001320B6833FA02F443D0EF
:101460004FF0010C0CFA02FC1CEA0303F3D04C68A9
:10147000013C012CD6D88D68846803FB03FC0CEB7F
:101480004C0624EA06040CFB05F52C4384600D6829
:10149000CE68446824EA050406FB05F52C43446045
:1014A000C0E7FF2B0ED84D69046A0EFB03F606FB5E
:1014B00003F3C3EB031624EA060405FB03F32343FB
:1014C0000362C0E74C69456A1B0A03FB03F603FB92
:1014D00006F606FB03F3C3EB031625EA060504FB39
:1014E00003F32B434362AEE7002070BD044B9B69BE
:1014F00003F00F03034AD35C03F01F03D840704787
:10150000004402586C510008044BDB69C3F302131A
:10151000034AD35C03F01F03D840704700440258CD
:101520006C510008044BDB69C3F30223034AD35C0C
:1015300003F01F03D8407047004402586C51000864
:1015400005EE900A06EE101A07EE902A07EE103A02
:10155000F8EE655AB8EE466AC5EE866AF8EE677A26
:10156000B8EE477A9FED096A27EE067A77EE877A1A
:1015700066EEA77A9DED007AB8EE477AC7EE876AE5
:10158000FCEEE67A17EE900A704700BF00000039C3
:101590002DE9F04182B00446394B9B6A03F0030306
:1015A000012B5ED0022B63D0002B4FD000260023EE
:1015B00023606360A360324B9F6AC7F305171A6B01
:1015C000C2F3080202F10108DD6A15F0010502D03C
:1015D0005D6BC5F3CC05002F35D0294BDB6A13F4C6
:1015E000803F0CD0264B1B6BC3F346230133009383
:1015F0002B46424639463046FFF7A2FF2060204B7B
:10160000DB6A13F4003F0CD01D4B1B6BC3F3064386
:10161000013300932B46424639463046FFF790FF90
:101620006060174BDB6A13F4802F0CD0144B1B6BDC
:10163000C3F30663013300932B46424639463046D6
:10164000FFF77EFFA06002B0BDE8F0810C4B1E6882
:1016500016F00406ABD01B68C3F3C103094EDE408D
:10166000A5E7074B1E6816F48076A0D0064E9EE7CD
:10167000034B1E6816F4003699D0044E97E700BF5E
:10168000004402580090D00300093D0040787D01DD
:10169000154B1B6903F03803182B0ED8DFE803F055
:1016A0000F0D0D0D0D0D0D0D210D0D0D0D0D0D0D54
:1016B000160D0D0D0D0D0D0D1800002070470A4B75
:1016C0001B68C3F3C1030948D840704708487047F6
:1016D00000B585B001A8FFF75BFF019805B05DF884
:1016E00004FB0448704700BF004402580090D00338
:1016F00040787D0100093D002DE9F04182B00446AB
:10170000394B9B6A03F00303012B5ED0022B63D09D
:10171000002B4FD00026002323606360A360324B70
:101720009F6AC7F305379A6BC2F3080202F10108FA
:10173000DD6A15F0100502D0DD6BC5F3CC05002F76
:1017400035D0294BDB6A13F4002F0CD0264B9B6B52
:10175000C3F34623013300932B46424639463046B5
:10176000FFF7EEFE2060204BDB6A13F4801F0CD0E5
:101770001D4B9B6BC3F30643013300932B4642463C
:1017800039463046FFF7DCFE6060174BDB6A13F426
:10179000001F0CD0144B9B6BC3F306630133009303
:1017A0002B46424639463046FFF7CAFEA06002B0DB
:1017B000BDE8F0810C4B1E6816F00406ABD01B6828
:1017C000C3F3C103094EDE40A5E7074B1E6816F4BC
:1017D0008076A0D0064E9EE7034B1E6816F40036B6
:1017E00099D0044E97E700BF004402580090D00300
:1017F00000093D0040787D012DE9F04182B00446AA
:101800003A4B9B6A03F00303012B60D0022B65D097
:10181000002B51D00026002323606360A360334B6C
:101820009F6AC7F305571A6CC2F3080202F1010858
:10183000DD6A15F4807502D05D6CC5F3CC05002F10
:1018400018BF002E35D0294BDB6A13F4800F0CD063
:10185000264B1B6CC3F34623013300932B464246B1
:1018600039463046FFF76CFE2060204BDB6A13F4EC
:10187000000F0CD01D4B1B6CC3F3064301330093C8
:101880002B46424639463046FFF75AFE6060174BFA
:10189000DB6A13F0807F0CD0144B1B6CC3F3066320
:1018A000013300932B46424639463046FFF748FE47
:1018B000A06002B0BDE8F0810C4B1E6816F0040673
:1018C000A9D01B68C3F3C103094EDE40A3E7074B51
:1018D0001E6816F480769ED0064E9CE7034B1E6869
:1018E00016F4003697D0044E95E700BF0044025826
:1018F0000090D00300093D0040787D0100B585B01F
:10190000C2B2484BD358020EC0F304218A401340A0
:10191000CB4040EA0340444B98420CD03DD8A3F55D
:10192000003398426ED010D9404B984229D003F52D
:101930007D43984221D13E4B186810F0005019D0D9
:1019400001A8FFF759FF029814E0A3F540739842ED
:101950000FD1FFF79DFE364B9B69C3F30323354A36
:10196000D35C03F01F03D840FFF7C0FDFFF7CCFDA9
:1019700000E0002005B05DF804FBA3F58033984239
:1019800009D12B4B186810F00060F3D001A8FFF7C5
:10199000B3FE0298EEE70020ECE7274B984217D001
:1019A0000ED9264B984203D003F54073984227D1B5
:1019B0001F4B186F10F00200DCD04FF40040D9E745
:1019C000A3F5803398420ED003F57D43984206D1AB
:1019D000174B186810F48070CCD01948CAE7A3F5EB
:1019E000803398420AD1124B186810F00400C1D01D
:1019F0001B68C3F3C1031348D840BBE70020B9E715
:101A00000020B7E7FFF744FE094B9B69C3F30323AC
:101A1000084AD35C03F01F03D840FFF767FDFFF7C8
:101A200081FDA7E74C440258080302070803010799
:101A3000004402586C510008080304070800050719
:101A400000093D000090D003014B1860704700BFB3
:101A50000000002010B5EFF3108272B61B4B1C681B
:101A600064B1EFF305831A4909680B430AD1194B96
:101A70009C420BD070B982F3108806E082F3108884
:101A8000132002E082F31088132010BD82F3108827
:101A90001320FAE7104B1B681BB182F31088132048
:101AA000F3E7042323630123A3630023C4F88430F2
:101AB000E06409490B6801330B6082F3108820460B
:101AC00000F002FBD4F88400DFE700BFE80A002042
:101AD00008000020340C0020F80A00203F4B9842F8
:101AE00000D0704770B582B0002556E03C4B1A68B4
:101AF0003C4B1A6065E001912BE0A368E5686168E2
:101B00002160002930D0C4F818D0246100943649EF
:101B10000C6082F310880BB128469847EFF31086CB
:101B200072B6314B00221A60009BA3421FD086F38D
:101B30001088EFF3108272B6019CECB1236900218A
:101B400000919C42D7D0616959610B6101A99961EB
:101B500001932368202BD0D9203B2360C4F818D0F0
:101B6000246100940023D2E70021A161CFE7A261A4
:101B7000204600F031FADAE71C4B1B68002B29D114
:101B80001B4803230363012383631A490B68013352
:101B90000B6082F3108800F097FAEFF3108172B6B1
:101BA000104B1A68136801930BB101A898610023C8
:101BB00013600C4A1368043313600F4A126893428F
:101BC00094D00A4B00221A6081F31088EFF3108240
:101BD00072B6B1E782F31088DFE700BF4D49544188
:101BE000200C00208C0B0020980B0020900B002074
:101BF000340C0020F80A00201C0C0020836953B12B
:101C00000269904208D0416951610A6119688142B4
:101C100008D00023836170471A688242F9D10022FC
:101C20001A60F6E793611A60F3E700002DE9F047C8
:101C300086B00E9E00287DD0894690469A4607467B
:101C4000149BB02B03D00E2006B0BDE8F087EFF355
:101C5000108172B6404A13680133136081F3108813
:101C60003E4B1C680F9B5A1E32440020014602E086
:101C7000D4F8884001303A4B1B68834212D9BC42E9
:101C800010D079B9E568B54204D82369B34201D9C7
:101C9000012100269542EBD823699342E8D901211E
:101CA0000026E5E7EFF3108172B62B4A1368013B7B
:101CB000136081F3108800F0DDFABC423CD0002EA6
:101CC0003CD0B8F1000F3BD00F9BC72B3AD9109BEB
:101CD0001F2B39D8119A934238D3139B012B37D835
:101CE000204B1A68204B9A4222D00020EFF3058344
:101CF0001E4A1268134307D0EFF305821B4B1B6883
:101D00001343B3F1F03F25D300289DD1139B0593D6
:101D1000129B0493119B0393109B02930F9B0193BF
:101D20000096534642464946384600F0BBF88BE7DA
:101D30001320DBE70E2087E70E2085E7032083E7EB
:101D4000032081E705207FE70F207DE718207BE750
:101D5000102079E7132077E7F80A0020E40A002032
:101D6000E00A0020E80A0020340C002008000020CF
:101D700008B5EFF3108172B6044A1368013313609B
:101D800081F31088024800F0FBFA08BDF80A002031
:101D9000340C002010B50F4B1B6813F10F3F0CD112
:101DA0000C4C4FF0F03323600B4B1868FEF748FCE7
:101DB00000232360FEF7B4FA10BD064B4FF0F0325B
:101DC0001A60FEF76DFB00F035F8044A1368013322
:101DD0001360E5E708000020C00A0020F80A002090
:101DE00010B5114B1C68636CA06C98470F4B1B68B7
:101DF0000BB120469847EFF3108172B6012323639D
:101E0000A3630023E3640A4A13680133136081F378
:101E10001088EFF3148323F0040383F3148820461F
:101E200000F052F910BD00BFE80A0020F40A0020BB
:101E3000F80A002008B500F0FBF800F039FA00239A
:101E40000C4A13600C4A13600C4A13600C4A13606E
:101E50000C4A13600C4A13600C4A13600C4A13605E
:101E60000C4A13600C4A13600C4A13600C4A13604E
:101E700008BD00BFD80A0020D40A0020D00A0020E4
:101E8000CC0A0020BC0A0020B80A0020AC0A0020BE
:101E9000A80A0020B40A0020B00A0020C80A0020C6
:101EA000C40A00202DE9F84F04468A469146984618
:101EB0000A9D0B9E0C9FDDF838B03246EF21284674
:101EC00000F03CFBB0220021204600F037FBC4F8B4
:101ED00028A0C4F84490C4F84880E5606661E762D1
:101EE000C4F89470C4F818B0C4F81CB02023C4F827
:101EF0009C30013E354425610D9B9F422FD003232A
:101F000023632D4B6365A4652C492046FEF7E8F951
:101F1000EFF3108172B62A4B23602A4B1B6813BB68
:101F2000294A1460C4F88840C4F88C400133254A1B
:101F30001360264A1368013313600F9B012B2BD1CA
:101F4000EFF30582224B1B681343B3F1F03F17D325
:101F5000204B1D68F5B1EE6BEB6AEB6312E0E763B3
:101F6000C4F89870CBE7184A1268D2F88C00C2F80F
:101F70008C40C0F88840C4F88C00C4F88820D5E7AD
:101F80000026354681F31088204600F0F9F985B126
:101F9000EE630EE00026F5E781F31088EFF3108181
:101FA00072B60A4A1368013B136081F3108800F08F
:101FB00061F90020BDE8F88F95200008E11D0008B8
:101FC00044524854E00A0020E40A0020F80A0020A5
:101FD00008000020EC0A0020036823B1B3F1FF3FA2
:101FE00001D0826902B17047202B15D8013B0D4A00
:101FF000126802EB83030C4A12689A4203D89B1AB8
:102000000A4A126813441A6842B151690861506162
:10201000026141618361E6E71F23E8E700614061F7
:102020001860F7E78C0B00201C0C0020200C00200F
:1020300010B500240D4B1C600D4B1C600D4B1C603B
:102040000D4B20221A60802221460C4800F076FABF
:102050000B4B1C600B4B1C600B4B1C600B4B1C6038
:102060000B4A136843F08573136010BDE80A002023
:10207000EC0A00207C0B0020F00A0020FC0A002063
:10208000E40A0020E00A0020F80A0020F40A0020F8
:10209000DC0A002008B5EFF3108272B6036B042B44
:1020A00007D0836ED0F8AC1082F3108803B1984744
:1020B00008BD04490B6801330B6082F3108800F0FF
:1020C0005FF9F5E7F80A002070B504464A4B1D6831
:1020D000EFF3108672B685421ED0484A1368013B62
:1020E0001360A36B012B24D086F31088444B1B682C
:1020F000AB4210D0414B1B686BB94FF0E0234FF05F
:102100008052C3F8042DEFF3058323B9EFF3108356
:1021100062B683F3108870BDC36C13B1B3F1FF3F97
:1021200003D1E269374B1A60D7E74C30FFF754FF11
:10213000F7E70023A363E26A236A9C422CD0616A1A
:1021400059620B62304951F82210A14220D02C4B29
:102150001B68A342C8D12D4B1A682B4B53F8222081
:10216000274B1A6086F31088244B1B68002BD2D1B2
:102170004FF0E0234FF08052C3F8042DEFF30583B6
:10218000002BC8D1EFF3108362B683F31088C2E747
:102190001D4941F82230DAE71B4B002143F8221099
:1021A000012393401A490A6822EA03020A6032B105
:1021B00092FAA2F2B2FA82F2144B1A60C7E7134BFA
:1021C00020221A600E4B00221A6086F310880B4BF7
:1021D0001B68002B9FD14FF0E0234FF08052C3F8D3
:1021E000042DEFF30583002B95D1EFF3108362B636
:1021F00083F310888FE700BFE80A0020F80A002068
:10220000EC0A0020E4100020FC0A0020F00A002064
:102210007C0B0020114B1B68EFF3108272B6104943
:102220000020086063B1196B51B9D96999610D48F3
:102230000160196A994203D0D86ADB6B984202D0D8
:1022400082F310887047084B43F82010074909684B
:1022500053F82110064B1960F2E700BFE80A00208E
:10226000940B0020E4100020FC0A0020F00A00205B
:10227000EC0A00200B4B1B689BB90B4B1A680B4BED
:102280001B689A420DD04FF0E0234FF08052C3F804
:10229000042DEFF3058323B9EFF3108362B683F3C4
:1022A00010887047F80A0020E80A0020EC0A002095
:1022B00030B587B000241F4B1C601F4B1C601F4BA8
:1022C0001C601F4B1C601F4B1C601F4D8022214651
:1022D000284600F033F91D4B1D601D4B1D601D4B42
:1022E00005F17C021A6080351D601B4B1B4A1A6089
:1022F0001B4B4FF480621A601A4B1C60194B1B6811
:1023000000220592049203930293154B1B680193DC
:10231000114B1B680093144B144A15491548FFF7DD
:10232000C1FD0028EAD10023134A1360134A136049
:1023300007B030BD300C0020E4100020940B0020CA
:10234000900B0020980B00209C0B0020200C0020FC
:102350008C0B00201C0C00202C0C0020E40C002016
:10236000280C0020240C00204D495441DD1A00089F
:102370007C510008340C0020880B0020840B0020C6
:1023800038B50446EFF3108572B6436EDBB14C30BE
:10239000FFF734FC3C4A1368013B1360A36B002B2E
:1023A00063D1236B002B46D0636B002B3FD123639B
:1023B000E26A364B53F8223043B15A6A14625C62C7
:1023C0006262236237E00023C364E3E72F4B43F8E4
:1023D000224024626462012303FA02F12C4803685C
:1023E0000B4303602B4B1B68934224D9294B1A6083
:1023F000294B1B68C3B1DB6B93421CD9264B1C6075
:1024000085F31088204B1B6873BB4FF0E0234FF01F
:102410008052C3F8042DEFF305832BBBEFF3108339
:1024200062B683F310881FE01B4B1C6003E000239F
:10243000636303232363194B1B6885F31088164AD3
:1024400012689A4210D0104B1B686BB94FF0E02312
:102450004FF08052C3F8042DEFF3058323B9EFF357
:10246000108362B683F3108838BD236B012BE2D052
:10247000022BE0D0636B13B9A3632363DBE7002374
:10248000636303232363D6E7F80A0020FC0A0020D5
:102490007C0B0020F00A0020EC0A0020E80A002053
:1024A000DFF834D0FEF7E6FC0C480D490D4A002356
:1024B00002E0D458C4500433C4188C42F9D30A4AF9
:1024C0000A4C002301E013600432A242FBD300F067
:1024D00011F8FEF775F87047000002200000002098
:1024E000DC010020BC550008DC010020FC100020AD
:1024F000FEE7000070B50D4D0D4C641BA4100026C6
:10250000A64209D10B4D0C4C02F064FD641BA410D3
:102510000026A64205D170BD55F8043B9847013608
:10252000EEE755F8043B98470136F2E7B45500084A
:10253000B4550008B4550008B855000802440346D5
:10254000934200D1704703F8011BF9E7F0B52DED78
:10255000028BB0EE408B85B017460D9D0C9E18EE99
:10256000902A25F02005002AB6BF2D220022B1EEC8
:10257000408B462D0C461A7004D0452D00D10134F5
:10258000022100E0032103AB019302AB009322463A
:102590003346B0EE480B00F0F7FD472D01D1FB07A5
:1025A0001AD5462D00EB04020CD10378302B07D14D
:1025B000B5EE408BF1EE10FA1CBFC4F1010434609B
:1025C00033681A44B5EE408BF1EE10FA08BF03925F
:1025D0003021039B934207D3039B0E9A1B1A13606F
:1025E00005B0BDEC028BF0BD5C1C03941970F0E7E4
:1025F000F7B503460029B8BF494203F8022BB4BF20
:102600002D222B22092942702ADD0DF10704A44650
:102610000A27A6460A4691FBF7F607FB1615303542
:10262000632A04F1FF340EF8015C3146F1DC3031ED
:10263000AEF1020504F8011C441C294661450AD389
:102640000DF10902A2EB0E02654588BF002213447A
:10265000181A03B0F0BD11F8012B04F8012FEDE7B3
:10266000302330318370C170031DF1E7000000009A
:102670002DE9F04F8BB00C46DDF8508016461F4612
:10268000054601F0A7FCD0F800B05846FDF73AFF28
:1026900000230893D8F8003094F818902268073384
:1026A00023F0070303F10801C8F800108246D3E9BC
:1026B0000001C4E912019FED987B94ED120BB0EE7E
:1026C000C06BB4EE476BF1EE10FA24DDB5EEC00B33
:1026D000F1EE10FA02D52D2384F84330904B914847
:1026E000B9F1470F94BF984680460323236122F037
:1026F00004020023226004930097334609AA21466E
:10270000284600F0D3F9013040F08A804FF0FF30C6
:102710000BB0BDE8F08FB4EE400BF1EE10FA09D724
:1027200010EE903A002BBCBF2D2384F843307E4836
:102730007E4BD5E7636809F0DF010491591C3CD159
:10274000062363600023039308ABCDE9019342F4B1
:10275000806207AB6168009322600DF11B0328467D
:10276000FFF7F4FE049B0799472B804608D1C81C4D
:1027700002DB6368994241DDA9F102095FFA89F938
:10278000B9F1650F20D801394A4604F1500007918C
:10279000FFF72EFF089A04901318012A236102DC28
:1027A0002268D20701D5013323619DF81B30002B2D
:1027B000A2D02D2384F843309EE704994729C1D144
:1027C000002BBFD10123BCE7B9F1660F18D1002956
:1027D00063680BDD216113B92268D00702D501338C
:1027E0000B4423610023A1650493DEE713B922683B
:1027F000D20701D50233F4E70123F2E74FF067096E
:10280000089B994205DB23682161D807EAD54B1C58
:10281000E7E70029D4BFC1F1020201221344E0E737
:1028200023685A0507D42369424631462846B847EB
:1028300001302AD16AE7B9F1650F40F2E28094EDE8
:10284000127BB5EE407BF1EE10FA33D1384A01230A
:1028500031462846B84701303FF458AFDDE9072339
:102860009A4202DB2368D8070FD553465A463146B1
:102870002846B84701303FF449AF4FF0000804F153
:102880001A09089B013B434509DC23689B0700F1BB
:102890000881E068099B9842B8BF184638E70123D1
:1028A0004A4631462846B84701303FF42FAF08F179
:1028B0000108E6E7079B002B3CDC1D4A012331465B
:1028C0002846B84701303FF421AFDDE90723134321
:1028D00002D12368D907D8D553465A4631462846EF
:1028E000B84701303FF412AF4FF0000904F11A0A63
:1028F000079B5B424B4501DC089B95E70123524651
:1029000031462846B84701303FF400AF09F10109CC
:10291000EEE700BFAFF30080FFFFFFFFFFFFEF7F99
:102920009451000898510008A05100089C510008DB
:10293000A4510008089AA36D9A42A8BF1A46002A1B
:10294000914638DC0023059329EAE97904F11A025B
:10295000A36D05990493A3EB09038B4233DCDDE9F6
:1029600007239A423CDB2368DA0739D4089B049A90
:1029700007999A1AA3EB01099145A8BF9146B9F1AD
:10298000000F35DC4FF0000829EAE97904F11A0A52
:10299000DDE907239B1AA3EB090343457FF775AFD6
:1029A0000123524631462846B84701303FF4AEAEC7
:1029B00008F10108ECE71346314642462846B8477D
:1029C0000130BFD1A2E60123314628460492B84720
:1029D00001303FF49BAE059B049A01330593B7E7A2
:1029E00053465A4631462846B8470130BED18DE697
:1029F000049A4B46424431462846B8470130C1D17B
:102A000084E6089A012A01DCDB0737D50123424618
:102A100031462846B84701303FF478AE53465A460F
:102A200031462846B84701303FF470AE94ED127B32
:102A3000B5EE407BF1EE10FA1BD0089B08F10102C5
:102A4000013B31462846B84701300ED15EE60123EE
:102A50004A4631462846B84701303FF457AE08F1A0
:102A60000108089B013B4345F1DC049B04F1500243
:102A7000DBE64FF0000804F11A09F2E701234246B1
:102A8000DFE701234A4631462846B84701303FF484
:102A90003DAE08F10108E36809995B1A4345F0DC93
:102AA000F7E64FF0000804F11909F4E72DE9F047C3
:102AB000164699468A680B69DDF820809342B8BFB4
:102AC0001346336091F8432007460C460AB10133A0
:102AD00033602368990642BF336802333360256848
:102AE00015F0060506D104F1190AE36832689B1A4D
:102AF000AB4226DC94F84320131E226818BF012342
:102B000092062BD404F1430249463846C0470130AF
:102B10001ED02368E568326803F00603042B08BF63
:102B2000AD1AA36822690CBF25EAE575002593421A
:102B3000C4BF9B1AED1800261A34B5421AD10020E2
:102B400008E00123524649463846C047013003D1C8
:102B50004FF0FF30BDE8F0870135C6E7E1185A1C99
:102B6000302081F84300224494F8451082F8431045
:102B70000233C7E70123224649463846C0470130A1
:102B8000E6D00136D9E700002DE9FF470F7E0C9D06
:102B9000782F914680460C469A4601F1430207D8A9
:102BA000622F0AD8002F00F0D880582F00F0A380A1
:102BB00004F1420584F842703AE0A7F16303152B53
:102BC000F6D801A151F823F0212C0008352C00087B
:102BD000B12B0008B12B0008B12B0008B12B000865
:102BE000352C0008B12B0008B12B0008B12B0008D0
:102BF000B12B0008412D0008652C0008232D00088A
:102C0000B12B0008B12B0008632D0008B12B000880
:102C1000652C0008B12B0008B12B00082B2D0008F3
:102C20002B681A1D1B682A6004F1420584F84230A3
:102C30000123A3E020682968060601F104030AD5F0
:102C40000E682B60002E03DA2D23764284F8433081
:102C50005E480A2319E00E682B6010F0400F18BF81
:102C600036B2EFE72B682068191D2960010601D5EF
:102C70001E6802E04606FBD51E8854486F2F0CBF25
:102C800008230A23002184F843106568A560002DFD
:102C9000A2BF216821F0040121600EB9002D4DD0A2
:102CA0001546B6FBF3F103FB1167C75D05F8017D1F
:102CB0003746BB420E46F4D9082B0BD12368DE07FA
:102CC00008D5236961689942DEBF302305F8013CCD
:102CD00005F1FF35521B2261CDF800A04B4603AA37
:102CE00021464046FFF7E2FE01304CD14FF0FF3065
:102CF00004B0BDE8F087354881F84570296823683D
:102D000051F8046B29601D0614D5DF0744BF43F05A
:102D1000200323601EB9236823F0200323601023BF
:102D2000B0E7236843F0200323607823284884F821
:102D30004530E3E7590648BFB6B2E6E71546BBE7BC
:102D40002B6826686169181D286035061B6801D547
:102D5000196002E07006FBD5198000232361154637
:102D6000BAE72B681A1D2A601D6862680021284690
:102D7000FDF7D6FB08B1401B606063682361002348
:102D800084F84330A8E723692A4649464046D0479D
:102D90000130ABD023689B0713D4E068039B9842B3
:102DA000B8BF1846A4E70123324649464046D047FB
:102DB00001309BD00135E36803995B1AAB42F2DC2A
:102DC000EBE7002504F11906F5E700BFA65100085E
:102DD000B75100080FB40A4B13B51C6824B1A3699E
:102DE00013B9204601F058F805AB049AA168019385
:102DF000204601F015FE02B0BDE8104004B0704757
:102E00000C00002070B50E46054618B183690BB959
:102E100001F042F8AB69AC6813B9284601F03CF800
:102E20002C4B9C4220D16C68636EDB0705D4A389D0
:102E3000980502D4A06D01F0D2F8A38919071DD519
:102E40002369DBB1013EA36816F8011F013BA360B3
:102E500039BB002B38DA22460A21284600F048F810
:102E6000013011D00A2511E01B4B9C4201D1AC6806
:102E7000DAE71A4B9C4208BFEC68D5E721462846A2
:102E800000F088F80028DDD04FF0FF35636EDA07D8
:102E900005D4A3899B0502D4A06D01F0A1F82846B2
:102EA00070BD002B04DAA2699A4206DC0A2904D01C
:102EB00023685A1C22601970C5E72246284600F094
:102EC00017F80130BFD1DFE723680A255A1C2260BA
:102ED0001D70DBE79C520008BC5200087C520008C1
:102EE000024B01461868FFF78DBF00BF0C000020A1
:102EF000F8B50E461446054618B183690BB900F0C3
:102F0000CBFF214B9C422BD16C68A369A360A389A2
:102F10001A072FD523696BB323692068C01A636928
:102F2000F6B28342374604DC2146284600F020FFF3
:102F300030BBA368013BA36023685A1C22601E704B
:102F400063690130834204D0A389DB0706D50A2ECA
:102F500004D12146284600F00BFF88B93846F8BD59
:102F60000A4B9C4201D1AC68CFE7094B9C4208BF99
:102F7000EC68CAE72146284600F00CF80028CBD0C0
:102F80004FF0FF37EAE700BF9C520008BC52000830
:102F90007C520008324B70B51D6806460C4625B1C0
:102FA000AB6913B9284600F077FF2E4B9C420FD136
:102FB0006C68A389B4F90C2019072CD4DD0611D450
:102FC0000923336042F04003A3814FF0FF303EE01D
:102FD000254B9C4201D1AC68EBE7244B9C4208BFD7
:102FE000EC68E6E7580712D5616B41B104F1440380
:102FF000994202D0304601F009FC00236363A389A3
:1030000023F02403A3810023636023692360A38941
:1030100043F00803A38123694BB9A38903F4207308
:10302000B3F5007F03D02146304600F0FFFFA089B2
:10303000B4F90C2010F001030AD00023A3606369E7
:103040005B42A361236943B910F08000BAD170BD1F
:10305000810758BF6369A360F4E70020F7E700BF6A
:103060000C0000209C520008BC5200087C52000852
:103070002DE9F74F03690C69A3420746C0F281802E
:10308000013C01F1140800F1140505EB84030193E0
:1030900058F8243055F8242001339A424FEA840B23
:1030A00008EB8409B2FBF3F631D34FF0000E404633
:1030B000AC46F24650F8042B93B206FB03E34FEA0A
:1030C000134E9BB2AAEB0303DCF800A0120C13FA18
:1030D0008AF306FB02E20093009B4FEA124E92B283
:1030E000C2EB1A4202EB2342BDF80030814543EAAD
:1030F00002434CF8043B4FEA224ADBD255F80B302E
:103100002BB9019B043B9D421A462ED33C613846A5
:1031100001F064FA002824DB013628464FF0000C49
:1031200058F8042BD0F800E093B2ACEB0303120C78
:1031300013FA8EF3C2EB1E4202EB23429BB243EA28
:103140000243C14540F8043B4FEA224CE8D255F80F
:10315000242005EB840322B9043B9D421A460AD37E
:103160003C61304603B0BDE8F08F1268043B002A92
:10317000CCD1013CC7E71268043B002AF0D1013CE6
:10318000EBE70020EEE700002DE9F04F2DED028B7C
:10319000456A91B08DED020B59EC108B1C9C069189
:1031A000064608920C9375B9102000F07FFF024686
:1031B000706220B9AA4BEA21AA4801F0C7FDC0E914
:1031C00001550560C560736A196851B15A684A6053
:1031D000012393408B60304600F0BEFF736A0022EB
:1031E0001A60B9F10003BBBF23F00043039300232F
:1031F0000122ACBF236022609B4B039CA3431CD1E4
:103200000C9A42F20F731360C4F3130353EA0803DA
:1032100000F0FD841D9B63B9944B1FE0944B019318
:1032200008331D9A1360019811B0BDEC028BBDE804
:10323000F08F8E4B01930333F3E79DED028BB5EED8
:10324000408BF1EE10FA0BD10C9A012313601D9BF9
:10325000002B00F0D98487481860431E0193E2E7F1
:103260000FA90EAA3046B0EE480B01F05DFAC4F388
:103270000A5105460E98002946D018EE904AC4F32C
:10328000130453EC182B44F07F5343F44013A1F282
:10329000FF31002443EC162BB7EE087B9FED6A5BF1
:1032A00036EE477B9FED6A6BA7EE056B9FED6A5B81
:1032B00007EE901AB8EEE74BB0EE467BA4EE057B26
:1032C000FDEEC76BB5EEC07BF1EE10FA16EE90BACC
:1032D0000A9408D5B8EEE66BB4EE476BF1EE10FA3F
:1032E00018BF0BF1FF3BBBF1160F2FD8624B03EB5E
:1032F000CB0393ED007BB4EEC78BF1EE10FA01D552
:103300000BF1FF3B002322E00F99014401F232430D
:10331000202BC1BFC3F1400304FA03F301F21244AE
:1033200028FA04F8D6BFC3F1200343EA080808FAD4
:1033300003F807EE908AB8EE677B013917EE904AE2
:1033400053EC172BA4F1F8730124A3E701230B938B
:10335000431A5A1E45BFC3F10103049300230023FF
:10336000059254BF04930593BBF1000F18DB059B36
:10337000CDF824B05B4405930023069A092A49D866
:10338000052AC4BF043A0692069AA2F10202CCBFF3
:1033900000240124032A48D8DFE802F00B2E2C3A3F
:1033A000049B0022A3EB0B0304930992CBF10003CF
:1033B000E3E700220792089A002A39DC4FF0010A5D
:1033C000D1465246CDF820A0776A002179600420CA
:1033D00000F1140C944579682FD930460D9300F014
:1033E0007BFE0D9B01900246002849D1234B4FF4F0
:1033F000D571E1E60122DDE700220792089A0BEB86
:10340000020A0AF101094A46012AB8BF0122DBE794
:103410000122F2E701240022CDE906244FF0FF3A11
:103420000021D14612220891CEE701220792F5E74A
:10343000DDF820A0D1465246C6E701317960400050
:10344000C6E700BFAFF3008061436F63A787D23F39
:10345000B3C8608B288AC63FFB799F501344D33F83
:10346000D5510008EC5100080000F07FD151000850
:10347000C8510008A5510008885300086A52000886
:10348000726A01991160B9F10E0F6CD8002C6AD0E4
:10349000BBF1000F40F3A080C1490BF00F0201EB1C
:1034A000C2021BF4807F92ED007B4FEA2B1100F0EB
:1034B0008780BC4A92ED086B88EE066B8DED026B3F
:1034C00001F00F010322B74800297BD19DED026B6B
:1034D00086EE077B8DED027B0B99002900F0A28020
:1034E000B7EE006B9DED027BB4EEC67BF1EE10FAF9
:1034F00040F19880B9F1000F00F09480BAF1000F0C
:103500002FDDB2EE046B27EE067B8DED027B0BF117
:10351000FF37013250469DED026BB1EE0C5B07EEBA
:10352000902AB8EEE77BA7EE065B15EE904A52ECC8
:10353000151BA4F15072002877D1B1EE047B36EE52
:10354000476B42EC171BB4EEC76BF1EE10FA00F3B9
:103550006382B1EE477BB4EEC76BF1EE10FA00F177
:1035600058828DED028B0F9A002AC0F21D81BBF1AB
:103570000E0F00F319818A4B03EBCB0393ED006B25
:10358000089B002B80F2B780B9F1000F00F3B380E5
:1035900040F03F82B1EE047B26EE076B9DED027B8F
:1035A000B4EEC76BF1EE10FA4C464F4680F215822E
:1035B000DDF80480312308F8013B0BF1010B11E227
:1035C000022280E7CC0704D590ED006B013227EE94
:1035D000067B4910083077E722D0CBF10001704A12
:1035E00001F00F0002EBC00292ED007B28EE077B9A
:1035F0008DED027B6B4809110024022229B9002CB1
:103600003FF46AAF8DED027B66E7CF0705D590EDFD
:10361000006B0132012427EE067B49100830EDE7EC
:10362000022259E75F46484675E742EC171B5C4AA1
:1036300002EBC00212ED024B019A1418079A52B322
:10364000B6EE003BB7EE002BDDF8048083EE045BA2
:10365000B2EE043B35EE477BFDEEC64B14EE902AEE
:10366000B8EEE45B303236EE456BB4EEC76BF1EE8C
:1036700010FA08F8012B39D432EE465BB4EEC75B82
:10368000F1EE10FA72D4A0453FF46BAF27EE037B46
:1036900026EE036BE0E7DDF8048027EE047B21468D
:1036A000B2EE043BFDEEC64B14EE902A303208F821
:1036B000012BA045B8EEE45B36EE456B18D1B6EEB3
:1036C000005B37EE054BB4EEC46BF1EE10FA4DDC47
:1036D00035EE477BB4EEC76BF1EE10FA7FF541AFE4
:1036E0008846013918F8013C302BF9D0BB462AE056
:1036F00026EE036BD6E79DED027BB2EE044BDDF8C0
:10370000048087EE065BBDEEC55B15EE103A3033E4
:1037100008F8013B019BA8EB03039945B8EEC53BB4
:10372000A3EE467B33D137EE077BB4EEC67BF1EEDA
:1037300010FA1ADCB4EE467BF1EE10FA03D115EE66
:10374000103AD90711D42946304600F005FD002370
:103750000C9A88F800300BF1010313601D9B002BBD
:103760003FF461ADC3F800805DE55F46434698468F
:1037700013F8012D392A06D1019A9A42F7D10199FD
:10378000302201370A701A7801321A70AEE727EE3C
:10379000047BB5EE407BF1EE10FAB2D1D3E700BF67
:1037A00088530008605300080799002900F0D08072
:1037B0000699012900F3B4800A99002900F0AC8031
:1037C00002F23342DDF810801C460A93049B134436
:1037D0000493059B012113443046059300F074FDCA
:1037E0000A9B0746B8F1000F0DDD059A002A0ADD95
:1037F00042450499A8BF4246891A04910599A8EB4D
:1038000002088A1A059203B3079A002A00F0A580DD
:10381000002C13DD3946224630460D9300F014FE8D
:103820002A4601460746304600F064FD29460A90C4
:10383000304600F091FC0A9A0D9B15461A1B04D0E5
:103840002946304600F000FE05460121304600F0D2
:103850003BFD099B002B044640F381801A4601463C
:10386000304600F0F1FD069B012B04467ADD002373
:103870000A93226904EB8202106900F0D5FCC0F1C2
:103880002000059B184410F01F0000F08C80C0F150
:103890002002042A40F38580C0F11C00049B0344ED
:1038A0000493059B034480440593049B002B05DD92
:1038B00029461A46304600F021FE0546059B002B9E
:1038C00005DD21461A46304600F018FE04460B9BE3
:1038D000002B6AD02146284600F080FE002864DADA
:1038E000002329460A22304600F058FC079B0BF1C2
:1038F000FF3B0546002B00F09181394600230A2248
:10390000304600F04BFCBAF1000F074600F38D8003
:10391000069B022B50DC88E00E9AC2F1360251E77A
:1039200009F1FF34A342BFBF099AE31AD2180992E2
:10393000B6BF23461C1B0024B9F1000FB5BF049A83
:10394000DDF81080A2EB09084A46B8BF00223CE728
:10395000DDF81080079F1C4644E71A4670E7069B77
:10396000012B18DC029BB3B9039BC3F31302A2B96A
:1039700023F00042120D12058AB1049B0133049317
:10398000059B0133059301230A93099B002B7FF4C8
:1039900070AF012075E70023F6E7029BF4E70A9277
:1039A000F3E782D010461C3078E7B9F1000F37DC1E
:1039B000069B022B34DDCA46BAF1000F0DD1214619
:1039C00053460522304600F0E9FB014604462846EE
:1039D00000F004FE00283FF7EBAD089BDDF8048003
:1039E0006FEA030B4FF000092146304600F0B4FBAC
:1039F000002F3FF4A8AEB9F1000F05D0B94503D0B0
:103A00004946304600F0A8FB3946304600F0A4FB9A
:103A100099E600242746E0E7BB4604460746C7E58B
:103A2000079BCA46002B00F00081B8F1000F05DDAE
:103A300039464246304600F061FD07460A9B002B9E
:103A40005DD07968304600F047FB804628B9824B4C
:103A5000024640F2EA21FFF7AFBB3A690232920018
:103A600007F10C010C3000F029FB012241463046E1
:103A700000F044FD019B01330493019B53440893E0
:103A8000029B03F00103B94607930746049B2146B6
:103A9000013B28460293FFF7EBFA034630330590CB
:103AA00049462846099300F099FD3A468246214648
:103AB000304600F0AFFDC268099B80460ABB014654
:103AC000284600F08BFD099B024641463046CDE971
:103AD000093200F041FB069B0A9ADDF8108043EAA8
:103AE0000201079B0B43099B0DD1392B29D0BAF159
:103AF000000F01DD059B3133029A137074E73846DD
:103B0000B8E70122E1E7BAF1000F06DB069941EAC6
:103B10000A0A07995AEA010120D1002AECDD294658
:103B200001223046049300F0E9FC2146054600F0EE
:103B300055FD0028049B02DCDED1DA07DCD5392BE9
:103B4000D8D1029A3923137043469846013B18F89E
:103B5000012C392A51D001321A7045E7002A03DDC1
:103B6000392BEED00133C7E7049A089902F8013CDB
:103B70008A422BD0294600230A22304600F00EFB51
:103B8000B94505464FF000034FF00A02494630465A
:103B900007D100F003FB81460746049B01330493E1
:103BA00074E700F0FBFA3946814600230A223046CA
:103BB00000F0F4FA0746F0E7BAF1000F019ACCBF23
:103BC000D0464FF0010890444FF0000929460122E9
:103BD0003046029300F092FC2146054600F0FEFCC0
:103BE0000028B1DC02D1029BDB07ADD443469846E6
:103BF00013F8012D302AFAD0F6E6019A9A42A4D1A0
:103C00000BF1010B312378E7144BFFF727BB1D9B0A
:103C1000002B7FF403AB124BFFF720BBBAF1000F70
:103C200003DC069B022B3FF7C7AEDDF8048021467C
:103C30002846FFF71DFA00F1300308F8013B019A0E
:103C4000A8EB02029245B7DD294600230A2230463E
:103C500000F0A4FA0546EAE76A520008A4510008F9
:103C6000C85100088A892DE9F041054610070C4625
:103C700058D44B68002B05DC0B6C002B02DC0020B9
:103C8000BDE8F081E66A002EF9D0002312F48052DC
:103C90002F682B6032D0606DA3895A0705D5636801
:103CA000C01A636B0BB1236CC01A00230246E66A8C
:103CB000216A2846B047431CA38906D129681D29DB
:103CC0002CD82A4ACA40D60728D500226260D904D7
:103CD0002269226004D5421C01D12B6803B96065BA
:103CE000616B2F600029CAD004F14403994202D0CD
:103CF000284600F08BFD00206063C1E7216A0123A4
:103D00002846B047411CC7D12B68002BC4D01D2BBF
:103D100001D0162B01D12F60B1E7A38943F04003F6
:103D2000A381ADE70F69002FA9D093070E6808BFE4
:103D30004B690F6018BF0023A6EB07088B60B8F132
:103D4000000F9CDD216AA66A43463A462846B047E2
:103D5000002806DCA38943F04003A3814FF0FF3025
:103D60008EE70744A8EB0008E9E700BF0100402008
:103D700038B50B6905460C4613B90025284638BDF1
:103D800018B183690BB900F087F8144B9C421BD122
:103D90006C68B4F90C30002BEFD0626ED00704D4FD
:103DA000990502D4A06D00F01AF928462146FFF7C4
:103DB00059FF636EDA070546E0D4A3899B05DDD47D
:103DC000A06D00F00DF9D9E7054B9C4201D1AC681C
:103DD000DFE7044B9C4208BFEC68DAE79C5200081E
:103DE000BC5200087C520008002310B50446C0E90C
:103DF0000033C0E90433836081814366C2818361FB
:103E0000194608225C30FEF799FB054B6362054BAF
:103E1000A362054BE362054B2462236310BD00BF20
:103E2000A14C0008C34C0008FB4C00081F4D0008C3
:103E3000014900F0AFB800BF713D000870B56822BD
:103E40004D1E55430E4605F1740100F04BFD04462E
:103E500040B10021C0E900160C30A06005F16802F5
:103E6000FEF76CFB204670BD014800F0B8B800BFFB
:103E7000E9100020014800F0B3B800BFE9100020AD
:103E8000014800F0ACB800BFEA100020014800F083
:103E9000A7B800BFEA10002010B50446FFF7F0FFF6
:103EA000A3691BB1BDE81040FFF7F0BFC4E91233AE
:103EB0002365134B134A1B68A262A34204BF01236C
:103EC000A361204600F020F86060204600F01CF856
:103ED000A060204600F018F80022E060042160682D
:103EE000FFF782FFA06801220921FFF77DFFE0684C
:103EF00002221221FFF778FF0123A361D2E700BF5E
:103F000090510008313E0008F8B50746FFF7ACFFB6
:103F10001E4B1E68B36913B93046FFF7BDFF483624
:103F2000D6E90134013B03D533680BB33668F7E7B4
:103F3000B4F90C50D5B9164BE36004F1580065662E
:103F400000F04CF8FFF796FFC4E90155C4E90455A9
:103F50002560A5610822294604F15C00FEF7EEFA0F
:103F6000C4E90D55C4E912552046F8BD6834D9E7B7
:103F700004213846FFF762FF044630600028D5D19F
:103F8000FFF778FF0C233B60EEE700BF905100087D
:103F90000100FFFF2DE9F8430646884600F148047A
:103FA0000027D4E90195B9F1010905D52468002C51
:103FB000F7D13846BDE8F883AB89012B07D9B5F9AD
:103FC0000E30013303D029463046C04707436835D9
:103FD000E9E7000000487047600100207047704723
:103FE000704770B50E46B1F90E10002996B0144610
:103FF0001D4608DAB6F90C3000222A601A0610D4E1
:104000004FF480630EE06A4600F0E0FE0028F1DB2A
:10401000019A02F47042A2F500535A425A412A60B2
:10402000EEE740230020236016B070BD8B8973B586
:104030009D0706460C4607D504F14703236023611C
:104040000123636102B070BD01AB6A46FFF7C9FF8F
:1040500000990546304600F045FC48B9B4F90C30EB
:104060009A05EFD423F0030343F00203A381E3E7AF
:104070000D4BB362A389206043F08003A381009BB2
:104080006361019B20615BB1B4F90E10304600F012
:10409000AFFE28B1A38923F0030343F00103A381FA
:1040A000A0890543A581CDE7313E0008024B0146BA
:1040B000186800F017BC00BF0C0000200A449142B1
:1040C00000F1FF3300D1704710B511F8014B03F830
:1040D000014F9142F9D110BD70B5466A04460D46B4
:1040E00076B91020FFF7E2FF0246606220B9184B54
:1040F0001848662100F02AFEC0E901660660C66025
:10410000666AF36883B1636ADB6853F82500B8B95F
:10411000012101FA05F6721D9200204600F060FBB5
:1041200060B1C0E901560EE021220421204600F0D2
:1041300057FB636AF060DB68002BE4D1002070BDA0
:10414000026843F825200023C0E90333F7E700BFE6
:10415000D5510008DC52000870B5466A05460C4689
:1041600076B91020FFF7A2FF0246686220B9094B1A
:1041700009488A2100F0EAFDC0E901660660C660D0
:104180003CB16B6A6268DB6853F82210216043F827
:10419000224070BDD5510008DC5200082DE9F041E5
:1041A0000D6907460C461E4601F1140C0020DCF890
:1041B000003099B202FB01611E0C0B0C02FB0633AE
:1041C00089B2013001EB034185424CF8041B4FEAF0
:1041D0001346ECDC0EB3A368AB4219DC61683846C9
:1041E0000131FFF779FF804628B902460C4B0D4894
:1041F000B52100F0ABFD2269023204F10C019200FE
:104200000C30FFF75BFF21463846FFF7A5FF444619
:1042100004EB850301355E6125612046BDE8F08130
:104220006A520008DC520008030C1B04D3B90004D6
:10423000102310F07F4F04BF0002083310F0704FBE
:1042400004BF0001043310F0404F04BF800002336C
:10425000002805DB10F0804F03F1010308BF202385
:10426000184670470023E4E7036813F0070201468D
:104270000BD0DA0723D4980749BF5B089B080120BD
:104280000B605CBF0B600220704798B2A8B91B0C92
:104290001020DAB20AB908301B0A1A0704BF1B093A
:1042A00004309A0704BF9B080230DA0703D45B0886
:1042B00000F1010005D00B6070471046E9E70020CF
:1042C000704720207047000010B50C460121FFF711
:1042D00003FF024628B9054B05484FF4A07100F0D2
:1042E00035FD01234461036110BD00BF6A5200081F
:1042F000DC5200082DE9F04F91460A69D9F81030D8
:104300009A42B8BF0B460C46BCBF4C46994627693B
:10431000D9F810A0A368616807EB0A06B34285B01C
:10432000B8BF0131FFF7D8FE30B90246444B4548CB
:1043300040F25D1100F00AFD00F1140505EB86085E
:104340002B460022434521D304F1140303EB8707D6
:1043500009F1140303EB8A0202923A1B153A22F088
:104360000302043204F115018F4238BF0422019286
:10437000029A03939A420CD8002E03DD58F8043DAC
:10438000002B5AD0066105B0BDE8F08F43F8042B2E
:10439000D8E7B3F800A0BAF1000F24D004F1140E4E
:1043A000A9464FF0000C5EF8042BD9F800101FFA54
:1043B00082FB89B20AFB0B114FEA124BD9F800209D
:1043C00061444FEA124C0AFB0BC202EB114289B264
:1043D00041EA0241774549F8041B4FEA124CE2D802
:1043E000019A45F802C0039AB2F802900433B9F179
:1043F000000F20D0296804F1140CAE464FF0000ADB
:10440000BCF800B0BEF8022009FB0B22924489B22E
:1044100041EA0A414EF8041B5CF8042BBEF8001078
:10442000120C09FB021101EB1A4167454FEA114AD0
:10443000E6D8019AA95004359AE7013E9CE700BFEF
:104440006A520008DC5200082DE9F843154612F0C4
:10445000030206460F4607D0254C013A002354F8C4
:104460002220FFF79BFE0746AD103DD0746A7CB951
:104470001020FFF71BFE0246706228B91D4B1E4834
:104480004FF4D77100F062FCC0E901440460C460DD
:10449000D6F82480D8F808404CB940F27121304653
:1044A000FFF712FF0023C8F80800044603604FF02E
:1044B0000009EB070AD5394622463046FFF71AFFB6
:1044C000394680463046FFF747FE47466D100BD011
:1044D000206838B9224621463046FFF70BFF20609E
:1044E000C0F800900446E4E73846BDE8F88300BF12
:1044F00050540008D5510008DC5200082DE9F0475F
:104500000C464968236903EB6218A3680746914685
:104510004FEA621A08F10106B3420BDB3846FFF797
:10452000DBFD054648B902462A4B2B4840F2D9111B
:1045300000F00CFC01315B00EEE7002300F11401F8
:1045400000F110021846534537DB20692AEAEA7A5F
:1045500004F1140319F01F0901EB8A0103EB800039
:104560002FD0C9F1200E8A464FF0000C1A6802FACB
:1045700009F242EA0C024AF8042B53F8042B984241
:1045800022FA0EFCF2D8031B153B23F0030304337D
:1045900004F11502904238BF042341F803C0BCF176
:1045A000000F01D008F10206013E38462E61214677
:1045B000FFF7D2FD2846BDE8F08742F8040F01332B
:1045C000C1E7043953F8042B41F8042F9842F9D875
:1045D000EAE700BF6A520008DC52000830B5026901
:1045E0000C69121B0ED100F11403143103EB84008B
:1045F00001EB840150F8045D51F8044DA54203D04D
:1046000005D30122104630BD8342F3D3FAE74FF0C1
:10461000FF32F7E72DE9F84F0C46064611462046D3
:104620009046FFF7DBFF051E10D129463046FFF705
:1046300053FD30B93A4B024640F23221394800F07E
:1046400085FB0123C0E90435BDE8F88FA4BF4346CC
:10465000A0463046D8F80410A6BF1C460025012508
:10466000FFF73AFD20B92E4B02464FF41071E5E7F3
:10467000D8F810702669C56004F1140908F1140512
:1046800000F1140E05EB870C09EB860608F1100209
:10469000F246002159F8043B52F804BF1FFA83F890
:1046A00011FA8BF11B0CA1EB0808C3EB1B4303EBC6
:1046B00028431FFA88F819144E4548EA03434AF87C
:1046C000043BE7D8331B153B23F0030304331534B5
:1046D000A64238BF04231D4473449E462E466645B9
:1046E0000ED30CF10302521B22F00302033DAC4532
:1046F00038BF00221A4452F8043D7BB10761A3E79A
:1047000056F8048B11FA88F2141404EB184492B290
:1047100042EA04424EF8042B2114E0E7013FEAE7A5
:104720006A520008DC5200082DE9F743894601214E
:1047300057EC106B9046FFF7CFFC044630B90246A9
:10474000254B264840F20A3100F000FBC7F30A551A
:10475000C7F3130335BB002E019328D0684600969B
:10476000FFF782FD009900B3019AC0F1200302FA1D
:1047700003F30B43C24063610192019BA361002BD1
:1047800014BF022201222261D5B1A5F233450544AE
:10479000C9F80050C0F13500C8F80000204603B049
:1047A000BDE8F08343F48013D5E76161E5E701A834
:1047B000FFF75AFD019B6361012222612030E3E78C
:1047C00004EB8203A0F23240C9F800001869FFF739
:1047D0002BFDC0EB4210DFE76A520008DC520008F4
:1047E00037B5A1FB02244CB91146019200F07AF8CA
:1047F000019A054630B9284603B030BD0C2202604C
:104800000025F8E72146FDF799FEF4E737B50029C2
:1048100044D051F8043C0190002BA1F10404B8BF2E
:10482000E41800F019FB1E4A0198136833B963605D
:10483000146003B0BDE8304000F014BBA34208D9B7
:10484000256861198B4201BF19685B6849192160AD
:10485000EDE71A465B680BB1A342FAD91168551807
:10486000A5420BD1246821445418A3421160E0D121
:104870001C685B68536021441160DAE702D90C239D
:104880000360D6E7256861198B4204BF19685B682D
:10489000636004BF491921605460CAE703B030BDAA
:1048A000EC10002070B50E4E0C463168054611B96B
:1048B00000F0E6F930602146284600F0E1F9431C9B
:1048C0000AD0C41C24F00304A04207D0211A2846B1
:1048D00000F0D6F9013001D14FF0FF34204670BD11
:1048E000F01000202DE9F041CD1C25F0030508351E
:1048F0000C2D38BF0C25002D074601DBA94205D938
:104900000C233B6000263046BDE8F0812E4E00F0BF
:10491000A3FA33681C4634BB29463846FFF7C2FF6A
:10492000431C04464DD134682646002E40D12368EE
:104930003146384604EB030800F0A2F980453AD12D
:10494000216803356D1A25F0030508350C2D38BF95
:104950000C2529463846FFF7A5FF01302BD02368E8
:104960002B4423600EE02268521B1ED40B2A16D95A
:104970006119A342256018BF5960636808BF3160A0
:1049800062514B60384604F10B0600F06BFA26F0DA
:104990000706231DF21AB6D09B1BA350B3E762682B
:1049A000A3420CBF32605A60ECE723466468B2E76A
:1049B00034467668B9E70C233B60384600F052FA7B
:1049C000A1E72560DEE700BFEC1000209368013B03
:1049D000002B10B4936008DA9469A34201DB0A2922
:1049E00003D15DF8044BFEF783BA1368581C1060BE
:1049F000197008465DF8044B7047F8B506460F4637
:104A00001446D518AC4201D1002007E014F8011B70
:104A10003A463046FFF7DAFF431CF3D1F8BD0000F9
:104A20002DE9F04F0D469DB014469846064618B144
:104A300083690BB9FFF730FA894B9D421BD175682A
:104A40006B6ED90705D4AB899A0502D4A86DFFF720
:104A5000C6FAAB891B0701D52B69EBB9294630464D
:104A6000FEF798FAC0B16B6EDC070ED54FF0FF3041
:104A70001DB0BDE8F08F7B4B9D4201D1B568DFE7EB
:104A8000794B9D4208BFF568DAE7AB899805EDD40C
:104A9000A86DFFF7A5FAE9E70023099320238DF815
:104AA0002930CDF80C803023DFF8C0818DF82A3012
:104AB0004FF0010923469A4613F8012B0AB1252A23
:104AC000F9D1BAEB040B0BD05B462246294630469F
:104AD000FFF793FF013000F0AA80099A5A44099227
:104AE0009AF80030002B00F0A28000234FF0FF3234
:104AF000CDE905230AF1010A049307938DF8533099
:104B00001A935446052214F8011B5848FBF708FD78
:104B1000049AD8B9D10644BF20238DF85330130727
:104B200044BF2B238DF853309AF800302A2B15D030
:104B3000079A544600204FF00A0C214611F8013B19
:104B4000303B092B4ED9B0B1079214E0A0EB08031B
:104B500009FA03F313430493A246D2E7039B191DFA
:104B60001B680391002BBBBF5B4242F0020207931C
:104B70000793B8BF049223782E2B0CD163782A2B8D
:104B800035D1039B1A1D1B680392002BB8BF4FF051
:104B9000FF3302340593DFF8E4A021780322504666
:104BA000FBF7BEFC40B14023A0EB0A0003FA00F083
:104BB000049B03430134049314F8011B2C488DF823
:104BC00028100622FBF7ACFC00283FD0294B1BBB6A
:104BD000039B073323F0070308330393099B3B44EC
:104BE000099367E70CFB02320C460120A5E700237E
:104BF0000134059319464FF00A0C204610F8012B9A
:104C0000303A092A03D9002BC5D00591C3E70CFB24
:104C1000012104460123F0E703AB00932A46164B1B
:104C200004A93046FDF724FD0746781CD6D16B6EEB
:104C3000D90705D4AB899A0502D4A86DFFF7D0F93E
:104C4000AB895B063FF512AF099811E703AB009300
:104C50002A46094B04A93046FDF796FFE4E700BF5A
:104C60009C520008BC5200087C5200085C540008AA
:104C70006654000871260008FB49000862540008C9
:104C800038B5064D0023044608462B6000F092F923
:104C9000431C02D12B6803B1236038BDF4100020FF
:104CA00010B50C46B1F90E1000F0E2F80028ABBFC9
:104CB000636DA3891B1823F48053ACBF6365A38184
:104CC00010BD2DE9F0411F468B89DB0505460C46DA
:104CD000164605D5B1F90E100223002200F098F80F
:104CE000A389B4F90E1023F48053A38132463B46C6
:104CF0002846BDE8F04100F017B810B50C46B1F9F0
:104D00000E1000F085F8431CA38915BF606523F4DD
:104D1000805343F48053A38118BFA38110BDB1F920
:104D20000E1000F031B8000038B5074D04460846B3
:104D3000114600222A601A46FBF754FF431C02D199
:104D40002B6803B1236038BDF41000201FB5144652
:104D50001A46094B1B680546D8684CB1074B0091B1
:104D6000CDE9013406492B4600F01EF800F09FF80B
:104D7000044B1C46F3E700BF0C0000206D540008F4
:104D80007A540008A854000838B5064D002304469C
:104D900008462B6000F0D6F8431C02D12B6803B103
:104DA000236038BDF41000200EB403B5014603ABF8
:104DB000054853F8042B00680193FFF731FE02B059
:104DC0005DF804EB03B070470C00002038B5074DC8
:104DD00000230446084611462B6000F0BBF8431C34
:104DE00002D12B6803B1236038BD00BFF41000204E
:104DF00038B5064D0023044608462B6000F0BAF88B
:104E0000431C02D12B6803B1236038BDF41000208D
:104E100038B5074D04460846114600222A601A4656
:104E200000F0B8F8431C02D12B6803B1236038BDF1
:104E3000F410002082B001B901A942B14BB113783E
:104E40000B601278101E18BF012002B07047104688
:104E5000FBE76FF00100F8E70148FFF7C0B800BFBB
:104E6000E81000200148FFF7BBB800BFE8100020A1
:104E700038B5074D04460846114600222A601A46F6
:104E800000F090F8431C02D12B6803B1236038BDB9
:104E9000F410002049B1FF2A85BF8A2303600A70FD
:104EA0004FF0FF3098BF012070470846704708B5A3
:104EB000062000F02BF8012000F08AF81F2938B5F1
:104EC00004460D4604D9162303604FF0FF3038BD69
:104ED000426C12B152F821304BB9204600F030F844
:104EE0002A4601462046BDE8384000F017B8012B9D
:104EF0000AD0591C03D1162303600120E7E70024E0
:104F000042F82540284698470020E0E7024B01463A
:104F10001868FFF7D3BF00BF0C00002038B5074D5D
:104F200000230446084611462B6000F02BF8431C72
:104F300002D12B6803B1236038BD00BFF4100020FC
:104F400000F010B8024B58221A604FF0FF30704743
:104F5000F4100020024B58221A604FF0FF307047C7
:104F6000F4100020024B58221A604FF0FF307047B7
:104F7000F4100020024B58221A600020704700BF36
:104F8000F4100020024B58221A604FF0FF30704797
:104F9000F4100020024B58221A604FF0FF30704787
:104FA000F4100020024B58221A604FF0FF30704777
:104FB000F4100020044A05491368002B08BF0B4673
:104FC0001844106018467047F810002000110020A7
:104FD000FEE700BFF8B500BFF8BC08BC9E467047AE
:0C4FE000F8B500BFF8BC08BC9E46704746
:104FF00068656C6C6F20776F726C6420E4BDA0E50F
:10500000A5BD20252E32660A0000000053445241FF
:105010004D2054657374204661696C6564210000FD
:10502000534452414D20546573742046696E697330
:105030006865640025640A0069646C655F74617367
:105040006B00000069646C655F7468726561640080
:105050005B556E68616E646C6564204572726F7238
:105060005D000000257300004E4D493A204E6F6EE2
:10507000206D61736B61626C6520696E746572721C
:1050800075707400486172644661756C743A2048AA
:10509000617264206661756C7420696E74657272E9
:1050A000757074004D656D4D616E6167653A204D98
:1050B000656D6F7279206D616E6167656D656E7487
:1050C000206661756C7400004275734661756C747E
:1050D0003A205072652D6665746368206661756C50
:1050E000742C206D656D6F727920616363657373D5
:1050F000206661756C740000557361676546617563
:105100006C743A20556E646566696E656420696EDC
:10511000737472756374696F6E206F7220696C6C42
:105120006567616C207374617465000000000000A5
:10513000010203040102030406070809010000003C
:10514000020000000400000006000000080000004B
:105150000A0000000C000000100000002000000009
:10516000400000008000000000010000000000007E
:10517000010203040102030406070809537973744A
:10518000656D2054696D65722054687265616400B4
:1051900010000020494E4600696E66004E414E00E8
:1051A0006E616E0030003031323334353637383985
:1051B0004142434445460030313233343536373886
:1051C0003961626364656600496E66696E69747907
:1051D000004E614E005245454E54206D616C6C6F1F
:1051E0006320737563636565646564002F6D6E7419
:1051F0002F776F726B73706163652F776F726B734C
:10520000706163652F4743432D31302D70697065A0
:105210006C696E652F6A656E6B696E732D474343CB
:105220002D31302D706970656C696E652D333338A2
:105230005F32303231313031385F313633343531ED
:10524000363230332F7372632F6E65776C69622F3D
:105250006E65776C69622F6C6962632F7374646C1E
:1052600069622F64746F612E630042616C6C6F63BE
:105270002073756363656564656400000000000069
:10528000000000000000000000000000000000001E
:10529000000000000000000000000000000000000E
:1052A00000000000000000000000000000000000FE
:1052B00000000000000000000000000000000000EE
:1052C00000000000000000000000000000000000DE
:1052D0000000000000000000000000002F6D6E7450
:1052E0002F776F726B73706163652F776F726B735B
:1052F000706163652F4743432D31302D70697065B0
:105300006C696E652F6A656E6B696E732D474343DA
:105310002D31302D706970656C696E652D333338B1
:105320005F32303231313031385F313633343531FC
:10533000363230332F7372632F6E65776C69622F4C
:105340006E65776C69622F6C6962632F7374646C2D
:1053500069622F6D707265632E63000000000000AB
:105360000080E03779C34143176E05B5B5B8934661
:10537000F5F93FE9034F384D321D30F94877825A2D
:105380003CBF737FDD4F1575000000000000F03F4B
:105390000000000000002440000000000000594010
:1053A0000000000000408F40000000000088C34063
:1053B00000000000006AF8400000000080842E41D8
:1053C00000000000D01263410000000084D7974124
:1053D0000000000065CDCD41000000205FA002422A
:1053E000000000E876483742000000A2941A6D429F
:1053F000000040E59C30A2420000901EC4BCD64292
:1054000000003426F56B0C430080E03779C341433C
:1054100000A0D8855734764300C84E676DC1AB43B2
:10542000003D9160E458E143408CB5781DAF1544D0
:1054300050EFE2D6E41A4B4492D54D06CFF08044AB
:10544000F64AE1C7022DB544B49DD9794378EA44C0
:1054500005000000190000007D000000232D302B06
:105460002000686C4C00656667454647002C206646
:10547000756E6374696F6E3A200061737365727440
:10548000696F6E2022257322206661696C65643A1B
:105490002066696C6520222573222C206C696E655C
:1054A000202564257325730A004300504F53495843
:1054B000002E000020202020202020202028282826
:1054C00028282020202020202020202020202020CC
:1054D0002020202088101010101010101010101014
:1054E0001010101004040404040404040404101034
:1054F00010101010104141414141410101010101D1
:10550000010101010101010101010101010101107C
:1055100010101010104242424242420202020202A5
:10552000020202020202020202020202020202104D
:10553000101010200000000000000000000000001B
:10554000000000000000000000000000000000005B
:10555000000000000000000000000000000000004B
:10556000000000000000000000000000000000003B
:10557000000000000000000000000000000000002B
:10558000000000000000000000000000000000001B
:10559000000000000000000000000000000000000B
:1055A00000000000000000000000000000000000FB
:0455B00000000000F7
:0455B400C502000824
:0455B800A102000844
:1055BC000090D0030090D003F0F0F0F01000002029
:1055CC00000000009C520008BC5200087C520008ED
:1055DC0000000000000000000000000000000000BF
:1055EC0000000000000000000000000000000000AF
:1055FC00000000000000000000000000000000009F
:10560C00000000000000000000000000000000008E
:10561C00000000000000000000000000000000007E
:10562C00430000000000000000000000000000002B
:10563C00000000000000000000000000000000005E
:10564C00430000000000000000000000000000000B
:10565C00000000000000000000000000000000003E
:10566C0043000000000000000000000000000000EB
:10567C00000000000000000000000000000000001E
:10568C0043000000000000000000000000000000CB
:10569C0000000000000000000000000000000000FE
:1056AC0043000000000000000000000000000000AB
:1056BC0000000000000000000000000000000000DE
:1056CC00430000000000000000000000000000008B
:1056DC0000000000000000000000000000000000BE
:1056EC00430000000000000000000000000000006B
:1056FC00000000000000000000000000000000009E
:10570C00954E0008354E000800000000B354000808
:10571C00B1540008A8540008A8540008A854000864
:10572C00A8540008A8540008A8540008A85400085D
:10573C00A8540008A8540008FFFFFFFFFFFFFFFF5D
:10574C00FFFFFFFFFFFF00000100415343494900E9
:10575C00000000000000000000000000000000003D
:10576C0000000000000000000000415343494900C4
:10577C00000000000000000000000000000000001D
:0C578C0000000000000000000000000011
:04000005080024A12A
:00000001FF
