:020000040800F2
:1000000000000220599F0008151300082113000862
:100010002D130008391300084513000800000000E4
:10002000000000000000000000000000A99F000880
:10003000A99F0008000000004D030008E504000827
:10004000A99F0008A99F0008A99F0008A99F000870
:10005000A99F0008A99F0008A99F0008A99F000860
:10006000A99F0008A99F0008A99F0008A99F000850
:10007000A99F0008A99F0008A99F0008A99F000840
:10008000A99F0008A99F0008A99F0008A99F000830
:10009000A99F0008A99F0008A99F0008A99F000820
:1000A000A99F0008A99F0008A99F0008A99F000810
:1000B000A99F0008A99F0008A99F0008A99F000800
:1000C000A99F0008A99F0008A99F0008A99F0008F0
:1000D000A99F0008A99F0008A99F0008A99F0008E0
:1000E000A99F0008A99F000800000000A99F000820
:1000F000A99F0008A99F0008A99F0008A99F0008C0
:10010000A99F0008A99F0008A99F0008A99F0008AF
:10011000A99F0008A99F0008A99F0008A99F00089F
:10012000A99F0008A99F0008A99F0008A99F00088F
:10013000A99F0008A99F0008A99F0008A99F00087F
:1001400000000000000000000000000000000000AF
:10015000A99F0008A99F0008A99F0008A99F00085F
:10016000A99F0008A99F0008A99F0008A99F00084F
:10017000A99F0008A99F0008A99F0008000000008F
:10018000A99F0008A99F0008A99F0008A99F00082F
:10019000A99F0008A99F0008A99F0008A99F00081F
:1001A000A99F0008A99F0008A99F0008A99F00080F
:1001B000A99F0008A99F0008A99F0008A99F0008FF
:1001C000A99F0008A99F0008A99F0008A99F0008EF
:1001D000A99F0008110D0008A99F0008A99F000809
:1001E000A99F0008A99F0008A99F0008A99F0008CF
:1001F000A99F0008A99F0008A99F0008A99F0008BF
:10020000A99F0008A99F0008A99F0008A99F0008AE
:10021000A99F0008A99F0008A99F0008A99F00089E
:10022000A99F0008A99F0008A99F000800000000DE
:10023000A99F0008A99F000800000000A99F0008CE
:10024000A99F0008A99F0008A99F0008A99F00086E
:10025000A99F0008A99F0008A99F0008A99F00085E
:10026000A99F0008A99F0008A99F0008A99F00084E
:10027000A99F0008A99F0008A99F0008000000008E
:10028000A99F0008A99F0008A99F0008000000007E
:0802900000000000A99F000816
:1002A00010B5054C237833B9044B13B10448AFF3B0
:1002B00000800123237010BD9C020020000000007C
:1002C00088CA000808B5034B1BB103490348AFF3C4
:1002D000008008BD00000000A002002088CA0008BD
:1002E000026922F00702A2F144026FF002031360D8
:1002F0004FF0000353609360D360136153619361C7
:10030000D361136253629362D362136353634FF0FA
:10031000FF339363D1634FF080731364826070473F
:100320004FF000002A4A1060EFF3148020F0040020
:1003300080F3148862B64FF080504FF0E021C1F88E
:10034000040DBFF34F8FBFF36F8FFEE72148224AA2
:100350004FF00003016891B10360EFF3098C2CE9C1
:10036000F00F1EF0100F01D12CED108A1B4C4CF831
:1003700004ED2568C1F808C00DB18D61236072B627
:100380001168B1B1016062B64F68144C8D6907F114
:1003900001074F602560D1F808C05CF804EB1EF03F
:1003A000100F01D1BCEC108ABCE8F00F8CF3098867
:1003B000704772B61168016009B962B6F9E74FF08B
:1003C00000674FF0E028C8F8047D62B6DCE77047AC
:1003D00000100020F00F0020F40F0020EC1500208A
:1003E0002249086800F101000860214B1A683AB1FF
:1003F000A2F101021A601AB91E4B4FF001001860F9
:100400001D490868026822B11C4B4FF001021A60B6
:1004100008E000F104001A4B1A68904201D1194B10
:1004200018680860134B1A6812B914490868D0B1EB
:100430002DE901401149086808B104F015F90D4B88
:100440001A6872B104F0ACFE0F48016849B90F4850
:1004500001680F4A13680F484FF08052994200D04C
:100460000260BDE80140BFF34F8F70473811002094
:10047000EC1500209C100020941000209810002003
:10048000241100202811002000100020F00F00206F
:10049000F40F002004ED00E0000000000000000068
:1004A00072B64FF0E0201249C0F8081D11481049FB
:1004B000096801601048016841F0010101604FF0D6
:1004C000E0200E4941614FF0070101614FF000014A
:1004D000C0F8181D4FF07F41C0F81C1D0849C0F836
:1004E000201D704701B5FFF77BFFBDE80140704755
:1004F0000000000888100020001000E0FF083D0008
:100500000000FF40034613F8012B002AFBD1181A04
:1005100001387047000000000000000000000000EB
:1005200001F0FF01102A2BDB10F0070F08D010F8A4
:10053000013B013A8B422DD010F0070F42B3F6D1A8
:10054000F0B441EA012141EA014122F007047FF0C1
:1005500000070023F0E80256083C85EA010586EA18
:10056000010685FA47F5A3FA87F586FA47F6A5FA54
:1005700087F68EB9EED1F0BC01F0FF0102F0070260
:1005800032B110F8013B013A83EA010313B1F8D10B
:100590000020704701387047002D06BF35460338EC
:1005A000073815F0010F07D1013015F4807F02BF25
:1005B000013015F4C03F0130F0BC0138704700BF76
:1005C00008B500F0F1FD00F0CFFF00F0BFF804F037
:1005D00083F9FEE708B500F01BF808F0BFFA044AFB
:1005E0000449054808F0E2FC07F032FD08BD00BFF1
:1005F000C59E0008A0CA0008000000C008B5034856
:100600000AF0D6F9642003F055FBF8E7ACCA0008FD
:1006100000B589B0B023069301230593002304930A
:100620001F22039202924FF400620192044A009248
:10063000044A0549054803F075FF09B05DF804FB5D
:10064000B8020020FD050008B8CA0008B80A00205A
:100650000C4B70221A700C4B5A680B4B5B689B1A40
:100660001C2BFAD94FF000431B78DAB213F0010FBC
:1006700006D112F0400F01D1002070474020704792
:100680000120704700000180001000E038B50B4BDE
:100690005D680B4CA4FB0034A40864000134074BD4
:1006A0005B685B1BA34205D2FFF7D2FF034600281D
:1006B000F5D001E04FF48063184638BD001000E02B
:1006C000CDCCCCCC08B5094BFF221A70084B5A6828
:1006D000074B5B689B1A282BFAD90648FFF7D6FF11
:1006E000402801D1002008BD0120FCE70000018066
:1006F000001000E040420F004A40C2F315020AB366
:1007000000239C4600E001330A2B0BDC02F00301BE
:1007100092080129F7D0022916D1012199404CEA0B
:10072000010CF0E74FEADC020CF0070C012303FA9E
:100730000CFC5FFA8CFC835C8CEA030C00F802C0B2
:1007400000207047002070470720704710B588B020
:1007500019481A4B03604FF4807343600023836091
:10076000C3600361436104218161C1614FF4805220
:1007700002634022C2624FF4006444628262022239
:100780004263846380F83C3003240494059106920C
:10079000079200930193029303936A4604A902F01F
:1007A000E5FA10B1012008B010BDFFF78BFF00285B
:1007B000F9D00120F7E700BF680B0020804000520D
:1007C0002DE9F04391B015461F466C4AD36A126B6F
:1007D00002FB03F3834240F2C78006468846CA19EB
:1007E00066494B6A896A0B449A4200F2BF806449A9
:1007F00000230B705FFA88F2624B1A70C8F307226D
:100800001A70C2B21A70C0F307221A70C0F30742FE
:100810001A7030230B705C4B5B685B4A5468E41AB7
:10082000282CFAD94CF25030FFF730FF402840F026
:100830009F80534B00221A70534B5968524B5A6891
:10084000521A082AFAD9B8F1000F40F08B804B4BAE
:100850005B6ABB4201D0002380E0484BDA6AB6FBFA
:10086000F2F302FB1363002B78D02C46002722E022
:1008700023464FF00044247803F8014B01311C4615
:10088000FF29F5DD4FEA8708DFF8F0904FF0FF32DF
:1008900008AB03EB8701484602F0CCFA08F14003AD
:1008A0006B4453F8202CC2F3150243F8202C484621
:1008B00002F0A6FA0137072F04DC304802F086FA6E
:1008C0000021DDE7002308E04FF00042117803F13A
:1008D00040026A4402F8381C0133172BF4DD00276C
:1008E000019708E02846FFF707FF044607282AD0AB
:1008F00005F580750137072F23DC07EB470303F16C
:1009000040026A4412F8382C8DF8042003F14102A9
:100910006A4412F8382C8DF8052042336B4413F8E2
:10092000383C8DF8063010AB03EB870353F8201CDE
:10093000019A9142DCD06FF07F439A42D2D10029D4
:10094000D0D1002415E03146104809F0ABFF10E08B
:100950004FF00042127805F8012B0133BB42F7D368
:10096000002406E00023F9E7062402E0062400E064
:100970000124204611B0BDE8F08300BF680B0020C1
:100980000000018000000280001000E0C4CA0008DE
:10099000F0B589B00D4614464B49CA6A096B01FB94
:1009A00002F2824240F28A80E918474E726AB66AC1
:1009B0003244914200F28480444A80211170E9B2AD
:1009C00002F580321170C5F307211170C1B21170A8
:1009D000C0F307211170C0F3074111703C4A516800
:1009E0003B4A5268521A202AFAD9002D64D1364A5D
:1009F000526A9A4201D000214AE0334AD26AB0FBDF
:100A0000F2F102FB110040BB002141E0224612F846
:100A1000010B4FF00041087001331446FF2BF5DD48
:100A2000AE00294F4FF0FF320DEB8501384602F042
:100A300001FA06F120036B4453F8202CC2F315028F
:100A400043F8202C384602F0DBF90135072D06DC8F
:100A50001D4802F0BBF90023E0E70025F6E700237C
:100A60000BE00DEB83011DF823004FF000421070E6
:100A700048781070897811700133072BF1DD09E097
:100A8000224612F8014B4FF0004004700131144629
:100A90009942F5D30D4B10221A700D4B5A680C4B2E
:100AA0005B689B1A282BFAD90A48FFF7EFFD40280C
:100AB00008D1002009B0F0BD0021E9E70620F9E7E0
:100AC0000620F7E70120F5E7680B00200000018011
:100AD000001000E000350C0008B5144B1B6B83427E
:100AE0001FD9124BDB6A03FB00F0114A602313701D
:100AF000C1B2104B1970C0F307211970C0F3074041
:100B00001870D02313700C4B5A680B4B5B689B1A00
:100B1000282BFAD90948FFF7B9FD402803D1002056
:100B200008BD0620FCE70120FAE700BF680B0020A3
:100B30000000018000000280001000E0404B4C00EB
:100B400070B58AB02F4BD3F8D42042F48052C3F84A
:100B5000D420D3F8D42002F480520392039AD3F81D
:100B6000E02042F00802C3F8E020D3F8E02002F0D1
:100B700008020292029AD3F8E02042F01002C3F871
:100B8000E020D3F8E02002F010020192019AD3F89D
:100B9000E02042F04002C3F8E020D3F8E03003F058
:100BA00040030093009B002404940594069407944A
:100BB0000894099402230593032606960C230993AF
:100BC0004DF633030493104D04A9284601F004F8B0
:100BD0004FF4F063049304A90C4800F0FDFF4FF4B8
:100BE0000073049304A90A4800F0F6FF05940696E2
:100BF000012308934023049304A9284600F0ECFF46
:100C00000AB070BD00440258000C0258001002588F
:100C10000018025838B5154C4FF481620021204667
:100C200009F0F6F9124B23600923636040236361E6
:100C30000223E360A361204602F07FF910B1012492
:100C4000204638BD0446094D4FF48061284602F025
:100C5000FBFE40220021284602F0D0FE4FF48062C5
:100C60000121284602F0CAFEEAE700BFA80B0020D7
:100C70000000084008B5034802F0FDF900B908BDBE
:100C80000120FCE7A80B002010B588B01C4CD4F85C
:100C9000E03043F00103C4F8E030D4F8E03003F072
:100CA00001030193019B0023029303930493059393
:100CB0000693079302230393032304930A230793C2
:100CC0004FF4C053029302A90E4800F085FF0E4A6C
:100CD000D36843F08073D360D4F8D83043F0006316
:100CE000C4F8D830D4F8D83003F000630093009BE8
:100CF000064B802283F865232022DA6008B010BDFD
:100D000000440258000002580048025800E100E088
:100D100008B5024802F09EFA08BD00BFA80B0020EB
:100D2000BFF35F8F384B0022C3F89420C3F898209C
:100D30004FF01052C3F89C20344AC3F8A02001227F
:100D4000C3F898204FF04042C3F89C20304AC3F8C3
:100D5000A0200222C3F898204FF00042C3F89C2044
:100D60002C4AC3F8A0200522C3F89420BFF34F8F6C
:100D7000BFF36F8F5B6913F4003F13D1BFF34F8F45
:100D8000BFF36F8F204B0022C3F85022BFF34F8F69
:100D9000BFF36F8F5A6942F400325A61BFF34F8F2D
:100DA000BFF36F8F184B5B6913F4803F2BD110B4E6
:100DB000154B0022C3F88420BFF34F8FD3F8804037
:100DC000C4F34E3000E01846C4F3C90243F6E073A2
:100DD00003EA401343EA82730B49C1F860321346B9
:100DE000013A002BF2D1431E0028ECD1BFF34F8F04
:100DF0004B6943F480334B61BFF34F8FBFF36F8F69
:100E00005DF8044B7047704700ED00E025000B03D0
:100E10003100020339000103074AD2F8FC3043F0E5
:100E20008073C2F8FC30054B00225A601A6842F009
:100E300001021A60704700BF00ED00E0001000E002
:100E400010B5914A136823F00F0343F002031360B7
:100E50008D4B1B6803F00F03022BF9D18B4AD3682B
:100E600023F0070343F00203D360936943F4404344
:100E70009361864B9B6903F44043B3F5404FF8D12F
:100E8000834A136843F480331360814B1B6813F467
:100E9000003FFAD07E4A136843F4805313607C4BC2
:100EA0001B6813F4005FFAD0794B9A6A22F00302B0
:100EB00042F002029A62DA6A22F00C0242F0080260
:100EC000DA62DA6A22F00202DA629A6A22F47C7248
:100ED00042F050029A62196B6E4A0A4042F09F0239
:100EE0001A631A6B22F47E4242F400721A631A6B80
:100EF00022F4FE0242F440321A631A6B22F0FE42E0
:100F000042F080721A63DA6A42F48032DA621A6856
:100F100042F080721A605E4B1B6813F0007FFAD0BB
:100F20005B4BDA6A22F0C002DA62DA6A22F020024F
:100F3000DA629A6A22F47C3242F4C8329A629A6B7C
:100F40005449114040F2F7120A439A639A6B22F413
:100F50007E4242F440629A639A6B22F4FE0242F4AB
:100F600080329A639A6B22F0FE4242F0A0529A635A
:100F7000DA6A42F40022DA62DA6A42F40022DA62C1
:100F8000DA6A42F40012DA621A6842F080621A6089
:100F90003F4B1B6813F0006FFAD03D4BDA6A42F406
:100FA0004062DA62DA6A22F40072DA629A6A22F045
:100FB0007C7242F000729A62196C364A0A4042F022
:100FC0007F021A641A6C22F47E4242F400721A64A0
:100FD0001A6C22F4FE0242F480321A641A6C22F077
:100FE000FE4242F000721A64DA6A42F08072DA62FB
:100FF0001A6842F080521A60254B1B6813F0005F9C
:10100000FAD0234CA36923F00F0343F00803A36134
:10101000236923F0070343F003032361A36923F447
:101020007063A3611C4801F09BFEA36923F00F03CA
:1010300043F00803A361E36923F0700343F0400326
:10104000E361E36923F4E06343F48063E361A3694C
:1010500023F0700343F04003A361236A23F070037D
:1010600043F0400323620D4AD2F8543423F038038E
:10107000C2F85434E36C23F00303E364636D43F478
:101080004013636510BD00BF0020005200480258A5
:101090000044025800FEFFFF0084D71700400258AA
:1010A00030B589B00F4BD3F8E02042F00202C3F80C
:1010B000E020D3F8E03003F002030193019B00230A
:1010C00002930393049305930693079301230393D9
:1010D00002250295044C02A9204600F07DFDA56181
:1010E00009B030BD004402580004025810B590B059
:1010F0002A4BD3F8E02042F00102C3F8E020D3F8F5
:10110000E02002F001020192019AD3F8F02042F0AF
:101110001002C3F8F020D3F8F03003F0100300936E
:10112000009B00240A940B940C940D940E940F943D
:101130004FF400730A9302230B9307230F930AA91A
:10114000174800F049FD2022214602A808F060FF60
:101150004FF4E13303930823079304F1804404F52B
:1011600088340DEB0301204600F07AFB236823F05E
:1011700000532360636823F490436360A36823F003
:101180002A03A360236843F001032360054BDB6956
:1011900013F4001FFAD010B010BD00BF0044025875
:1011A000000002580010014008B50B49CA6822F43B
:1011B000E0621204120C094B1343CB60FFF7B0FD41
:1011C000FFF73EFE00F042FAFFF726FEFFF78EFF24
:1011D000FFF766FF08BD00BF00ED00E00003FA0561
:1011E000144BA3FB003C4FEA1C5C134B03FB1C009D
:1011F00007E0124B5968114B5B685B1A104A934227
:10120000F9D963460CF1FF3C002BF2D180B14FF4C9
:101210007A7200FB02F2094B59680A4BA3FB0232B7
:10122000920852000132054B5B685B1A9A42FAD869
:10123000704700BF83DE1B4300093D00001000E043
:1012400000105E5FCDCCCCCC10B504E04FF47A70CA
:10125000FFF7C6FF2046441E0028F7D110BD00004E
:1012600008B504460A4809F01DFB1CB1214609488F
:1012700009F018FB08494B691A0402F40032DB43F9
:1012800003F0020313438B61FA20FFF7DDFFF1E760
:10129000D8CA0008ECCA00080004025808B5FFF7D5
:1012A000D3FF08BD08B50C4B1B6873B10B4B5868D6
:1012B00003F1C64303F5DE1303F68363A3FB00309B
:1012C000800C00EB8000400808BD03F0A7FB00EB9A
:1012D00080004000F8E700BF08000020001000E098
:1012E00008B5FFF7DFFF08BD1046002393420DDA73
:1012F00030B4CD5C064CA562054CE46914F0400F97
:10130000FAD001338342F4DB30BC7047704700BF32
:101310000010014008B50148FFF7A2FFF0CA00081D
:1013200008B50148FFF79CFF0CCB000808B5014841
:10133000FFF796FF2CCB000808B50148FFF790FF98
:1013400050CB000808B50148FFF78AFF80CB0008A2
:1013500000B58DB0374BD3F8E02042F00402C3F85B
:10136000E020D3F8E02002F004020592059AD3F8B9
:10137000E02042F00802C3F8E020D3F8E02002F0B9
:1013800008020492049AD3F8E02042F01002C3F855
:10139000E020D3F8E02002F010020392039AD3F881
:1013A000E02042F02002C3F8E020D3F8E02002F071
:1013B00020020292029AD3F8E02042F04002C3F8E1
:1013C000E020D3F8E03003F040030193019B0023B9
:1013D00006930793089309930A930B9302230793A9
:1013E000032308930C230B930D23069306A912489D
:1013F00000F0F2FB4CF20373069306A90F4800F0CD
:10140000EBFB4FF68373069306A90D4800F0E4FB4F
:101410004FF63F03069306A90A4800F0DDFB48F2A9
:101420003713069306A9084800F0D6FB0DB05DF807
:1014300004FB00BF0044025800080258000C025888
:1014400000100258001402580018025830B593B02A
:10145000204BD3F8D42042F48052C3F8D420D3F8E0
:10146000D43003F480530093009B2822002108A865
:1014700008F0CEFD0123099308250A9510230B934C
:1014800040230C934FF480730D934FF400630F933C
:101490004FF4805310934FF4005311930E4C08A94E
:1014A000204600F0E9FA02230193029505220392F7
:1014B00007220492059306930793089A01A92046F0
:1014C00000F014FB054A136843F00043136013B0A7
:1014D00030BD00BF0044025840410052004000525D
:1014E000F0B585B000240094019402940394012681
:1014F00000961027019702961A4D4FF480526946C4
:10150000284600F047FB3046FFF79EFE022300937B
:101510000197029603944FF480526946284600F0E2
:1015200039FB0323009301970823029303944FF49C
:1015300080526946284600F02DFB04230093019752
:10154000029640F2232303934FF4805269462846C3
:1015500000F020FB40F2F921284600F033FB05B0F3
:10156000F0BD00BF4041005208B5FFF7F1FEFFF7A4
:101570006DFFFFF7B5FF08BD294AD2F8883043F464
:101580007003C2F88830274B1B6803F00F03062B4B
:1015900006D8244A136823F00F0343F007031360AF
:1015A000214B1A6842F001021A6000221A61196880
:1015B0001E4A0A401A601B4B1B6813F0080F06D026
:1015C000184A136823F00F0343F007031360164B08
:1015D00000229A61DA611A62154999621549D96245
:1015E000154919635A639963DA6319645A6419686F
:1015F00021F4802119601A66104B1A68104B1340B1
:10160000B3F1005F03D20F4B0122C3F808210E4B48
:1016100043F2D2021A60024B4FF000629A607047A8
:1016200000ED00E000200052004402587FEDF6EA91
:10163000000202020000FF01800201010010005CB4
:101640000000FFFF008000510040005210B47A4BB0
:101650001B6903F03803182B00F2E580DFE813F074
:101660001B00E300E300E300E300E300E300E3002A
:101670001900E300E300E300E300E300E300E3001C
:10168000EA00E300E300E300E300E300E300E3003B
:1016900037006A4A05E0684B1B68C3F3C103684A18
:1016A000DA4065488369C3F303236649CB5CDA40BB
:1016B000836903F00F03CB5C03F01F0322FA03F3EB
:1016C00061490B60614B1A605DF8044B70475A49E1
:1016D000886A00F003008C6AC4F30512CB6A03F039
:1016E000010C4B6BC3F3CC030CFB03F307EE903AF6
:1016F000F8EE677A14F47C7FD3D0012859D0022801
:1017000074D018B34C480168C1F3C1014C4BCB40B5
:1017100007EE103AF8EE476A07EE102AB8EE476A6D
:1017200086EE867A036BC3F3080306EE903AF8EE72
:10173000666A9FED476A67EE867A76EEA77AF7EEDD
:10174000006A77EEA67A27EE277A22E00846096833
:10175000C1F3C1013A4BCB4007EE103AF8EE476AAD
:1017600007EE102AB8EE476A86EE867A036BC3F35B
:10177000080306EE903AF8EE666A9FED356A67EE6A
:10178000867A76EEA77AF7EE006A77EEA67A27EEEB
:10179000277A294B1B6BC3F34623013307EE903A9C
:1017A000F8EE677AC7EE276AFCEEE67A17EE902A23
:1017B00077E707EE102AF8EE476A9FED266A86EE75
:1017C000267A1D4B1B6BC3F3080306EE903AF8EE26
:1017D000666A9FED1F6A67EE867A76EEA77AF7EE65
:1017E000006A77EEA67A27EE277AD2E707EE102A6C
:1017F000F8EE476A9FED186A86EE267A0E4B1B6B51
:10180000C3F3080306EE903AF8EE666A9FED106A9D
:1018100067EE867A76EEA77AF7EE006A77EEA67A1A
:1018200027EE277AB5E7044B1B68C3F3C103044ACC
:10183000DA4036E7094A34E70044025800093D001F
:101840000090D003B4CB000804000020000000206A
:10185000000000390024744A20BCBE4B40787D0152
:1018600038B5036813F0010F40F08A8004460D4636
:101870000368444A1A408B6809690B4369690B4342
:10188000E9690B4313430360EB68426822F440525A
:1018900013434360AB69826822F440721343836050
:1018A000394B984216D0394B98421CD0384B98424D
:1018B0001DD0384B98421ED0374B98421FD0374B23
:1018C000984220D0364B984221D0364B984222D0B5
:1018D00001204EE0344800F0F5FB002848D06A684B
:1018E000EAB9012045E0314800F0ECFBF5E72F486C
:1018F00000F0E8FBF1E72D4800F0E4FBEDE72B48B2
:1019000000F0E0FBE9E7284800F0DCFBE5E72748CA
:1019100000F0D8FBE1E7254800F0D4FBDDE72B68B9
:10192000E9690B2B0FD872B1B1F5004F0DD0DBB2C6
:101930001F4951F82330B0FBF3F303EB5203B3FB21
:10194000F2F39BB2E360002013E0DBB2184951F8D8
:101950002330B0FBF3F0530803EB4000B0FBF2F38D
:101960004FF6F0721A40C3F342031343E360EAE711
:101970000120E26A22F00F022B881343E36238BD94
:101980000120FCE7F369FFEF001001400044004034
:1019900000480040004C004000500040001401404E
:1019A00000780040007C00400803000708000007A2
:1019B000C4CB000810B403680B4A1A404B688C680B
:1019C0002343CC6823430C6923434C6943EA4423F3
:1019D000896943EA41331A4342F008020260002059
:1019E0005DF8044B704700BF8901F0FF83680B6806
:1019F0004A6843EA02238A6843EA0243CA6843EA20
:101A00000263836000207047C3680B684A6843EA3A
:101A100002238A6843EA0243CA6843EA0263C36056
:101A200000207047036843F04003036000207047C4
:101A3000036823F04003036000207047F8B50446B4
:101A40000E461D46FFF74CFC0746626812F0400F39
:101A50000BD1B5F1FF3FF8D0FFF742FCC01BA84205
:101A600007D8002DF1D1032002E063693360002024
:101A7000F8BD0320FCE7000010B40B68CBB9036885
:101A8000194A1A404B688C682343CC6823430C697D
:101A900023434C6923438C692343CC6923430C6A59
:101AA0002343496A0B431343036000205DF8044B52
:101AB0007047036823F4F843CA690C6A22434C6AEE
:101AC0002243134303604368074A1A404B688C68FB
:101AD0002343CC6823430C6923434C69234389691E
:101AE0000B4313434360E0E70080FFFF10B43ABBB1
:101AF000826802F070420B68013B4C6804F1FF3CC5
:101B000043EA0C138C6804F1FF3C43EA0C23CC68D5
:101B100004F1FF3C43EA0C330C6904F1FF3C43EA57
:101B20000C434C6904F1FF3C43EA0C5389690139C9
:101B300043EA01631343836000205DF8044B704760
:101B40008368134A1A40CB6803F1FF3C4B69013BA1
:101B50001B0543EA0C3313438360C26802F07042F2
:101B60000B68013B4C6804F1FF3C43EA0C138C68A2
:101B700004F1FF3C43EA0C230C6904F1FF3C43EA07
:101B80000C438969013943EA01631343C360D3E716
:101B9000FF0F0FFF10B40369094A1A400B684C6825
:101BA00023438C6804F1FF3C43EA4C13C96843EAC1
:101BB00041231343036100205DF8044B704700BFCD
:101BC0000000C0FF4269034B134043EA41034361F5
:101BD0000020704701C0FFFF70B50A6892FAA2F2B8
:101BE00012B1B2FA82F21BE0202219E0C46803FBB2
:101BF00003FE0EEB4E056FEA050C24EA05040D69A1
:101C00000EFB05F52C43C4604C68022C2DD04C68AB
:101C100003680CEA03030EFB04F423430360013260
:101C20000B6833FA02F443D04FF0010C0CFA02FCBB
:101C30001CEA0303F3D04C68013C012CD6D88D6814
:101C4000846803FB03FC0CEB4C0624EA06040CFB43
:101C500005F52C4384600D68CE68446824EA0504C9
:101C600006FB05F52C434460C0E7FF2B0ED84D69F9
:101C7000046A0EFB03F606FB03F3C3EB031624EA28
:101C8000060405FB03F323430362C0E74C69456A7E
:101C90001B0A03FB03F603FB06F606FB03F3C3EB89
:101CA000031625EA060504FB03F32B434362AEE764
:101CB000002070BD044B9B6903F00F03034AD35C03
:101CC00003F01F03D840704700440258F4CB0008CB
:101CD000044BDB69C3F30213034AD35C03F01F0315
:101CE000D840704700440258F4CB0008044BDB692D
:101CF000C3F30223034AD35C03F01F03D8407047A9
:101D000000440258F4CB000805EE900A06EE101AC3
:101D100007EE902A07EE103AF8EE655AB8EE466ADA
:101D2000C5EE866AF8EE677AB8EE477A9FED096AE3
:101D300027EE067A77EE877A66EEA77A9DED007A2F
:101D4000B8EE477AC7EE876AFCEEE67A17EE900A9D
:101D5000704700BF000000392DE9F04182B0044611
:101D6000394B9B6A03F00303012B5ED0022B63D037
:101D7000002B4FD00026002323606360A360324B0A
:101D80009F6AC7F305171A6BC2F3080202F1010834
:101D9000DD6A15F0010502D05D6BC5F3CC05002F9F
:101DA00035D0294BDB6A13F4803F0CD0264B1B6BDC
:101DB000C3F34623013300932B464246394630464F
:101DC000FFF7A2FF2060204BDB6A13F4003F0CD02A
:101DD0001D4B1B6BC3F30643013300932B46424656
:101DE00039463046FFF790FF6060174BDB6A13F40B
:101DF000802F0CD0144B1B6BC3F30663013300938D
:101E00002B46424639463046FFF77EFFA06002B0BF
:101E1000BDE8F0810C4B1E6816F00406ABD01B68C1
:101E2000C3F3C103094EDE40A5E7074B1E6816F455
:101E30008076A0D0064E9EE7034B1E6816F400364F
:101E400099D0044E97E700BF004402580090D00399
:101E500000093D0040787D01154B1B6903F03803F4
:101E6000182B0ED8DFE803F00F0D0D0D0D0D0D0D25
:101E7000210D0D0D0D0D0D0D160D0D0D0D0D0D0D75
:101E80001800002070470A4B1B68C3F3C1030948C0
:101E9000D84070470848704700B585B001A8FFF7E3
:101EA0005BFF019805B05DF804FB0448704700BF74
:101EB000004402580090D00340787D0100093D00A5
:101EC0002DE9F04182B00446394B9B6A03F00303CD
:101ED000012B5ED0022B63D0002B4FD000260023B5
:101EE00023606360A360324B9F6AC7F305379A6B28
:101EF000C2F3080202F10108DD6A15F0100502D0F4
:101F0000DD6BC5F3CC05002F35D0294BDB6A13F40C
:101F1000002F0CD0264B9B6BC3F346230133009359
:101F20002B46424639463046FFF7EEFE2060204BF6
:101F3000DB6A13F4801F0CD01D4B9B6BC3F306436D
:101F4000013300932B46424639463046FFF7DCFE0C
:101F50006060174BDB6A13F4001F0CD0144B9B6BB3
:101F6000C3F30663013300932B464246394630469D
:101F7000FFF7CAFEA06002B0BDE8F0810C4B1E68FE
:101F800016F00406ABD01B68C3F3C103094EDE4054
:101F9000A5E7074B1E6816F48076A0D0064E9EE794
:101FA000034B1E6816F4003699D0044E97E700BF25
:101FB000004402580090D00300093D0040787D01A4
:101FC0002DE9F04182B004463A4B9B6A03F00303CB
:101FD000012B60D0022B65D0002B51D000260023AE
:101FE00023606360A360334B9F6AC7F305571A6C85
:101FF000C2F3080202F10108DD6A15F4807502D00F
:102000005D6CC5F3CC05002F18BF002E35D0294BD1
:10201000DB6A13F4800F0CD0264B1B6CC3F34623F2
:10202000013300932B46424639463046FFF76CFE9B
:102030002060204BDB6A13F4000F0CD01D4B1B6C8F
:10204000C3F30643013300932B46424639463046DC
:10205000FFF75AFE6060174BDB6A13F0807F0CD0ED
:10206000144B1B6CC3F30663013300932B464246AB
:1020700039463046FFF748FEA06002B0BDE8F08167
:102080000C4B1E6816F00406A9D01B68C3F3C103ED
:10209000094EDE40A3E7074B1E6816F480769ED0FB
:1020A000064E9CE7034B1E6816F4003697D0044E8C
:1020B00095E700BF004402580090D00300093D009E
:1020C00040787D0100B585B0C2B2484BD358020EAE
:1020D000C0F304218A401340CB4040EA0340444B04
:1020E00098420CD03DD8A3F5003398426ED010D959
:1020F000404B984229D003F57D43984221D13E4B75
:10210000186810F0005019D001A8FFF759FF029885
:1021100014E0A3F5407398420FD1FFF79DFE364BB4
:102120009B69C3F30323354AD35C03F01F03D840F4
:10213000FFF7C0FDFFF7CCFD00E0002005B05DF823
:1021400004FBA3F58033984209D12B4B186810F09B
:102150000060F3D001A8FFF7B3FE0298EEE700207D
:10216000ECE7274B984217D00ED9264B984203D064
:1021700003F54073984227D11F4B186F10F00200EF
:10218000DCD04FF40040D9E7A3F5803398420ED05D
:1021900003F57D43984206D1174B186810F4807000
:1021A000CCD01948CAE7A3F5803398420AD1124B24
:1021B000186810F00400C1D01B68C3F3C1031348B2
:1021C000D840BBE70020B9E70020B7E7FFF744FE9F
:1021D000094B9B69C3F30323084AD35C03F01F0335
:1021E000D840FFF767FDFFF781FDA7E74C44025891
:1021F000080302070803010700440258F4CB000853
:10220000080304070800050700093D000090D003FB
:10221000002301330C4A934211D80269002AF8DAEC
:10222000036943F00103036100230133064A93422B
:1022300007D8026912F0010FF7D100207047032080
:1022400070470320704700BF400D030084B010B5F5
:10225000044603A880E80E00089B012B1DD1A36B48
:1022600023F48033A363E2681D4B1340E360E3680B
:1022700023F44013E3600F9B012B09D02046FFF7A6
:10228000C7FF069B012B1BD0BDE8104004B0704770
:10229000E36843F48013E360F0E7E36843F040034E
:1022A000E3602046FFF7B4FF0C9B23B9A36B43F414
:1022B0008033A363E5E7A36B23F48033A363E0E7F4
:1022C000E36D9BB2E365E26D064B1343E365A368E0
:1022D00043F00603A360A36843F02003A360D3E7A1
:1022E000BFFFBDFF0000EE03022A0AD00921C26829
:1022F00022F47052C260C36843EA8123C3600020A5
:102300007047204B0B44204A934229D91F4B0B4462
:102310001F4A934226D91F4B0B441F4A934223D98D
:102320001E4B0B441E4A934220D31E4B0B441E4AA5
:1023300093421DD91D4B0B441D4A93421AD31D4B8A
:102340000B441D4A934217D31C4B0B441C4A934227
:1023500014D31C4B0B441C4A934211D20721C6E7ED
:102360000F21C4E70E21C2E70D21C0E70C21BEE713
:102370000B21BCE70A21BAE70921B8E70821B6E733
:102380000621B4E7405327FFFF340C00401E1BFF1B
:102390003F420F0000DC0BFF7F4F1200808CF9FEE4
:1023A00020D6130060B6E5FE5FE3160000D3CEFE34
:1023B00040771B00C05BB3FEC091210000CA91FEB4
:1023C00020753800E05459FEE09C4100836843F0DA
:1023D0000103836000207047836823F0010383605A
:1023E0000020704708B5C36823F0C043C3600129CB
:1023F00009D069B9C36843F08043C3603220FEF757
:102400004DFF002008BDC36843F00053C360F5E7EB
:102410000120F7E7890141F0200101610023013328
:10242000054A934205D8026912F0200FF7D1002027
:1024300070470320704700BF400D03001023036165
:1024400000230133054A934205D8026912F0100FA8
:10245000F7D1002070470320704700BF400D0300F4
:10246000D0F800381943C0F8001800207047000069
:1024700084B02DE9F041044607A880E80E0000234F
:1024800006E003F1400204EB8202002151600133B7
:102490000E2BF6D9119F27BBD4F8043843F0020362
:1024A000C4F80438A36B23F40013A363236843F038
:1024B00040032360236843F0800323600023C4F8B3
:1024C000003E04F50065D4F80038C4F800380C9BD1
:1024D000012B10D1099B4BB900212046FFF7C0FF0B
:1024E0000DE0A36B43F40013A363E7E7012120464B
:1024F000FFF7B6FF03E003212046FFF7B1FF1021ED
:102500002046FFF787FF804608B14FF001082046BC
:10251000FFF794FF08B14FF0010800232B616B61B6
:10252000EB610AE0C3B94FF00060C2F80009002275
:102530000A614FF67F328A6001330799994210D9B8
:1025400004EB431202F51061D2F800090028E9DB20
:102550000020C2F80009EAE74FF09040C2F80009F5
:10256000E5E700230AE0C3B14FF0904CC2F800CB7E
:10257000002202614FF67F3282600133994211D905
:1025800004EB431202F53060D2F8006B002EEADB58
:102590004FF0000CC2F800CBEAE74FF0006CC2F835
:1025A00000CBE5E72B6923F480732B610023A36143
:1025B0006FF0804363610A9B1BB9A36943F010036A
:1025C000A361A2690A4B1343A3610D9B1BB1A369CD
:1025D00043F00803A361012F04D04046BDE8F04159
:1025E00004B07047A269034B1343A361F5E700BF32
:1025F00000383C8004000040D0F8083813F006038F
:1026000005D0062B18BF022B03D1022070470020F3
:1026100070470F207047000010B591F800C04B784C
:10262000012B21D000F5006ED0F81C380CF00F04FF
:102630000122A24043EA0243C0F81C3800EB4C10D0
:10264000D0F8003B13F4004F0CD1D0F8002B8B686E
:10265000C3F30A03C97843EA81431343144A1A4374
:10266000C0F8002B002010BDD0F81C280CF00F0E75
:1026700003FA0EF39BB21343C0F81C3800EB4C1066
:10268000D0F8003913F4004FECD1D0F800298B6852
:10269000C3F30A03C97843EA814343EA8C5C42EA04
:1026A0000C0C034B4CEA0303C0F80039DAE700BF17
:1026B0000080001030B40B784A78012A26D000EB55
:1026C0004313D3F8002B002A52DBD0F83C480A7899
:1026D00002F00F024FF0010C0CFA02F224EA02425F
:1026E000C0F83C28D0F81C28097801F00F010CFA3A
:1026F00001FC22EA0C42C0F81C28D3F8001B234A34
:102700000A40C3F8002B002030BC704700EB431395
:10271000D3F80029002A1EDBD0F83C580A7802F0D2
:102720000F02012404FA02F292B225EA0202C0F872
:102730003C28D0F81C28097801F00F018C40A4B285
:1027400022EA0404C0F81C48D3F80019104A0A40D1
:10275000C3F80029D7E7D3F8002942F00062C3F894
:102760000029D3F8002942F08042C3F80029D3E7BA
:10277000D3F8002B42F00062C3F8002BD3F8002BF3
:1027800042F08042C3F8002B9FE700BF0078F3EFD0
:10279000007833EC70B40B784C78012C25D000EB2A
:1027A000431000F530631D693F4C2C401C611D69CE
:1027B0003E4C2C401C614C690CB18C684C611C690E
:1027C00044F400241C611C698D68C5F3120C44EAB2
:1027D0000C041C61012A62D0D0F8003B43F0044392
:1027E000C0F8003B002070BC70474C695CBB00EB3C
:1027F0004314D4F810692D4D3540C4F81059D4F85D
:10280000105945F40025C4F81059D4F81069264D24
:102810003540C4F81059012A32D000EB4313D3F8E5
:10282000002942F00442C3F800294B69002BD9D09B
:10283000D0F834380A7802F00F0101228A4013439D
:10284000C0F83438CEE700EB431404F51064266971
:10285000154D354025612669144D354025618D683B
:102860004E69AE4200D94D61256945F400252561C8
:1028700025694E69C6F3120C45EA0C052561CAE7C5
:102880000A691AB100EB4311C1F8142900EB431097
:10289000D0F8002942F00442C0F80029A2E7CA6833
:1028A000002A99D05A6197E70000F8FFFFFF07E080
:1028B00010B59DF8084084B903334FEA930E4FF0EA
:1028C000000C08E000EB023303F5805351F8044B91
:1028D0001C600CF1010CF445F4D3002010BD000085
:1028E000F0B583B00B784C78012C31D000EB43135A
:1028F00003F5306CDCF81050834C2C40CCF81040C1
:10290000DCF81050814C2C40CCF810404C69002C65
:1029100040F0C680DCF810408D68C5F312052C43EA
:10292000CCF81040DCF8104044F40024CCF81040FF
:10293000012A00F0CF80CA78012A00F0D280D3F8B3
:10294000002B42F00442C3F8002B002003B0F0BD7E
:102950004C6974BB00EB4314D4F810696B4D3540DF
:10296000C4F81059D4F8105945F40025C4F810598A
:10297000D4F81069644D3540C4F81059012A4DD07F
:1029800000EB4313D3F8004944F00444C3F8004972
:10299000CC78012C6BD04B69002BD6D0D0F83438D2
:1029A0000A7802F00F0101228A401343C0F834383C
:1029B000CBE700EB4314D4F81069534D3540C4F80D
:1029C0001059D4F81069514D3540C4F81059D4F855
:1029D00010598E684F6907EB060C0CF1FF3CBCFBED
:1029E000F6FC4B4E06EACC4C45EA0C05C4F81059EF
:1029F000D4F810594E69C6F312063543C4F810597D
:102A000004F51064CD78012DB8D1256925F0C045B5
:102A10002561256945F000552561AFE70A691AB1BE
:102A200000EB4314C4F81429CA78012A08D000EB3B
:102A30004313D3F8002942F00442C3F8002984E785
:102A4000D0F8082812F4807F08D100EB4311D1F8A8
:102A5000002942F00052C1F80029E8E700EB4311D9
:102A6000D1F8002942F08052C1F80029DFE7D0F800
:102A7000084814F4807F0CD1D3F8004944F0005486
:102A8000C3F8004900928B8A0A78C968FFF710FFE3
:102A90005BE7D3F8004944F08054C3F80049F1E7FC
:102AA0008D682C44013CB4FBF5F4DCF810501FFA9F
:102AB00084FE174E06EAC4442543CCF81050DCF8D7
:102AC00010508C680EFB04F4C4F312042C43CCF8B1
:102AD00010402DE7CA68002A3FF42DAFCCF814202F
:102AE00029E7D0F8082812F4807F06D1D3F8002B0C
:102AF00042F00052C3F8002B21E7D3F8002B42F03C
:102B00008052C3F8002B1AE70000F8FFFFFF07E030
:102B10000000F81F00B583B0844608464FEA920EC5
:102B200002F00302002305E00CF58051096840F82B
:102B3000041B01337345F7D39AB10CF5805CDCF8C4
:102B4000003001934FF0000C5FFA8CF3D900019B29
:102B5000CB4000F8013B0CF1010C013A92B2002A83
:102B6000F2D103B05DF804FB0B784A78012A14D047
:102B700000EB4310D0F8002B002A06DB2BB1D0F875
:102B8000003B23F08043C0F8003BD0F8003B43F407
:102B90000013C0F8003B0020704700EB4310D0F852
:102BA0000029002A06DB2BB1D0F8003923F080433E
:102BB000C0F80039D0F8003943F40013C0F80039E8
:102BC000E9E70B784A78012A0ED000EB4310D0F8E1
:102BD000003B23F40013C0F8003BCB78023BDBB290
:102BE000012B15D90020704700EB4310D0F80039B5
:102BF00023F40013C0F80039CB78023BDBB2012B81
:102C0000F0D8D0F8003943F08053C0F80039E9E734
:102C1000D0F8003B43F08053C0F8003BE2E7D0F827
:102C2000003823F4FE63C0F80038D0F800380901FA
:102C300001F4FE611943C0F8001800207047D0F875
:102C4000003E23F00303C0F8003ED0F8043823F020
:102C50000203C0F8043800207047D0F8003E23F08B
:102C60000303C0F8003ED0F8043843F00203C0F874
:102C70000438002070474269806910407047D0F8DE
:102C8000183800F50060C0691840000C7047D0F893
:102C9000183800F50060C069184080B2704700EB3A
:102CA0004111D1F8082B00F50060406910407047D1
:102CB00010B4D0F81048D0F8343801F00F02D340E7
:102CC000DB01DBB2234300EB411000F510608068AC
:102CD00018405DF8044B7047406900F001007047F0
:102CE000D0F80029054B1340C0F80039D0F804385B
:102CF00043F48073C0F804380020704700F8FFFFE9
:102D000010B4046C154B9C4203D9D0F8003B002B47
:102D100016DB0024C0F8104BD0F8104B44F400240C
:102D2000C0F8104BD0F8104B44F01804C0F8104B0A
:102D3000D0F8104B44F0C044C0F8104B012903D028
:102D400000205DF8044B7047C0F8142BD0F8003B0E
:102D500043F08023C0F8003BF2E700BF0A30544F35
:102D6000014B1860704700BF0000002048B370B5E9
:102D70000E461546044690F82130EBB1214651F835
:102D8000040BFEF717FE626831462068FEF72EFE40
:102D9000626829462068FEF737FE2268136843F010
:102DA00004031360084A136843F0004313600123CF
:102DB00084F82130002070BD80F82030FDF7C0FE7F
:102DC000DCE70120704700BF0040005210B5044608
:102DD00090F82100C0B2022805D094F82130DBB26F
:102DE000012B01D0012010BD022384F8213061683D
:102DF0002068FEF717FE012384F821300020F2E757
:102E000010B5044690F82100C0B2022805D094F80D
:102E10002130DBB2012B01D0012010BD022384F848
:102E2000213061682068FEF703FE012384F8213019
:102E30000020F2E710B5044690F821C05FFA8CF04C
:102E4000022805D094F82100C0B2012801D0012049
:102E500010BD022384F82130134662682068FEF713
:102E6000EDFD012384F82130F2E72DE9F04383B032
:102E7000D0F80080C1EBC10300EB83035A6D1B6DDA
:102E80009A4254D807460C469B1AC1EBC10200EB8C
:102E90008202526C9A4200D31A4602F103094FEAA9
:102EA000990915E006F103094FEA9909C4EBC40535
:102EB00007EB8505A96C3B7C0093B3B2E2B24046B8
:102EC000FFF7F6FCAB6C3344AB646B6D33446B655E
:102ED00008EB441303F510639B699BB24B4512D377
:102EE000C4EBC40207EB8202516D136D99420AD202
:102EF0004BB15B1AC4EBC40207EB8202566C9E42D4
:102F0000D0D31E46CEE7C4EBC40007EB80073A6D72
:102F10007B6D9A420FD804F00F040123A340D8F828
:102F2000344824EA0304C8F83448002000E00120B3
:102F300003B0BDE8F0830020FAE770B58AB000283E
:102F400000F097800546046890F8BD333BB3032337
:102F500085F8BD33E36B13F4807F01D100232B612F
:102F60002868FFF739FA2C4654F8106BEC460FCC62
:102F7000ACE80F000FCCACE80F0094E803008CE83D
:102F800003002B1D0ECB3046FFF760F9044658B105
:102F9000022385F8BD33012420460AB070BD80F8B5
:102FA000BC33FDF771FED2E700212868FFF71AFA5B
:102FB000234616E0C3EBC30205EB8202012182F82F
:102FC0003D1082F83C30A2F84230002182F83F10D8
:102FD00051649164C3EBC30205EB820211650133B6
:102FE000DBB269688B42E5D316E0C4EBC40305EBA2
:102FF0008303002283F8FD2183F8FC4183F8FF213D
:10300000C3F80422C3F80822C4EBC40305EB83030E
:10301000C3F810220134E4B2A142E6D82C4654F899
:10302000106BEC460FCCACE80F000FCCACE80F00F7
:1030300094E803008CE803002B1D0ECB3046FFF70D
:1030400017FA044660B9002385F83830012385F863
:10305000BD336B6A012B08D02868FFF7FEFD9BE7A4
:10306000022385F8BD33012496E7284600F0F0FCE2
:10307000F2E7012490E7026890F8BC33012B19D0E5
:1030800010B50446012380F8BC33836A012B09D0B4
:103090002068FFF79BF92068FFF7D1FD002084F836
:1030A000BC0310BD8369012BF2D0936B43F48033D2
:1030B0009363EDE70220704738B5056890F8BC339C
:1030C000012B1CD00446012380F8BC332846FFF7AF
:1030D00083F92068FFF7C1FD10212068FFF79AF9F6
:1030E000A36A012B03D0002084F8BC0338BDA36978
:1030F000012BF8D0AB6B23F48033AB63F3E70220F2
:10310000F4E7000070B504460D460068066C00EB5D
:10311000411303F530639A682169012911D03449BC
:103120008E424ED03DB9C5EBC50304EB8303D3F803
:103130001032002B56D0E9B2204604F00FFE0020DA
:1031400070BD12F0080F09D02A498E42F7D912F447
:10315000004FF4D04FF400429A60F0E712F0200FD5
:1031600002D020229A60EAE712F0280FE7D1214925
:103170008E4206D912F4004F03D04FF400429A60F9
:10318000DDE7C5EBC50204EB8202D2F804121B692D
:10319000C3F31203CB1AC2F81432D2F808320B442C
:1031A000C2F8083215B9D2F8103223B1E9B220467C
:1031B00004F0D4FDC3E704F571720121FFF7A0FD0F
:1031C000F4E712F4004F03D04FF400429A60B6E7E0
:1031D00012F0200F01D020229A60E9B2204604F0BC
:1031E000BDFDACE704F571720021FFF789FDA2E790
:1031F0000A31544F0A30544F38B5044603681D6CE9
:1032000003EB4113D3F8081B0E4A954207D903F587
:10321000306311F4004F02D04FF400429A60204610
:1032200004F0ECFC074B9D4202D92369012B01D02D
:10323000002038BD04F5717201212068FFF760FDA0
:10324000F6E700BF0A30544F704770477047704729
:10325000704770472DE9F84F044605682846FFF788
:103260003BFD08B1BDE8F88F06462068FFF703FD77
:103270000028F7D02068FFF7FEFC10F0020F04D002
:103280002268536903F0020353612068FFF7F3FCDF
:1032900010F0100F14D02268936923F0100393618B
:1032A0002F6A07F00F08C7F34343022B00F0858015
:1032B000062B00F0A1802268936943F0100393610C
:1032C0002068FFF7D8FC10F4002F40F0A78020689A
:1032D000FFF7D1FC10F4802F40F0E9802068FFF761
:1032E000CAFC0028C0F253812068FFF7C4FC10F428
:1032F000006F0AD0D5F8083813F0010F40F0618153
:103300002268536903F4006353612068FFF7B3FC3C
:1033100010F0006F15D02268536903F00063536109
:1033200094F8F433002B40F05081012184F8F41319
:1033300023685B6DC3F38303C4F8F833204600F0C1
:103340009BFB2068FFF797FC10F4805F40F0418101
:103350002068FFF790FC10F4005F40F09581206832
:10336000FFF789FC10F0080F40F0A6812068FFF7F6
:1033700082FC10F4801F40F0A8812068FFF77BFCDE
:1033800010F4001F40F0AB812068FFF774FC10F0D0
:10339000804F40F0AE812068FFF76DFC10F0040F05
:1033A0003FF460AF23685D6815F0040F40F0AA8118
:1033B000226853682B43536054E747F6F0731F426B
:1033C0003FF479AF4FEA171BC8EBC80904EB890932
:1033D000C7F30A12D9F808122846FFF79BFBCBF374
:1033E0000A02D9F808321344C9F80832D9F814325D
:1033F0001A44C9F814225EE7082204F571712846C0
:10340000FFF788FBC7F30A17C8EBC80204EB820278
:10341000D2F814321F44C2F814724CE72068FFF748
:103420002EFC0746B04616E005EB48130122C3F810
:10343000082B41462046FFF765FE1BE005EB4813CD
:103440000822C3F8082B41462046FFF7D5FE14E0BA
:1034500008F101087F08002F3FF439AF17F0010F82
:10346000F6D05FFA88F12068FFF719FC814610F06A
:10347000010FD9D119F0080FE0D119F0100F04D0C5
:1034800005EB48131022C3F8082B19F0200F04D0C5
:1034900005EB48132022C3F8082B19F4005FD7D09E
:1034A00005EB48134FF40052C3F8082BD0E720680F
:1034B000FFF7EDFB0746B04629E05146204604F0F1
:1034C000F7FB19F0080F04D005EB48130822C3F8E6
:1034D000082919F0100F04D005EB48131022C3F887
:1034E000082919F0400F04D005EB48134022C3F817
:1034F000082919F0020F04D005EB48130222C3F883
:10350000082919F0800F3DD108F101087F08002F2C
:103510003FF4E4AE17F0010FF6D05FFA88FA514697
:103520002068FFF7C5FB814610F0010FC9D008F0F5
:103530000F03012101FA03F2D5F8343823EA02031C
:10354000C5F8343805EB4813C3F8081923698B42D2
:10355000B3D1C8EBC80304EB8303596C9A6C0A44DB
:103560009A64B8F1000FA8D1C8EBC80304EB830339
:103570001B6D002BA1D104F5717201212068FFF7AA
:10358000BFFB9AE741462046FFF76FFCBCE7D5F842
:10359000043823F00103C5F8043894F8F433012B00
:1035A00008D02046FFF752FE2268536903F000431B
:1035B000536199E6002184F8F413204600F05CFA88
:1035C000F2E72046FFF741FE9AE62046FFF73DFE70
:1035D000B7E605F500677B6823F001037B601021E7
:1035E0002068FEF717FF20E005EB46134FF67F310A
:1035F000C3F80819D3F8002922F40012C3F80029EF
:10360000D3F8002942F00062C3F80029C3F8081B70
:10361000D3F8002B22F40012C3F8002BD3F8002BB0
:1036200042F00062C3F8002B01366368B342DBD876
:10363000FB6943F00113FB61236BDBB1D7F88430E6
:1036400043F00B03C7F884307B6C43F00B037B64BF
:10365000D5F8003823F4FE63C5F8003804F571721C
:10366000217C2068FFF74CFB2268536903F48053E8
:1036700053616DE67A6942F22B0313437B613B6928
:1036800043F00B033B61E3E72068FFF729FB206869
:10369000FEF7B2FFE060256800F0EAFA0146227BFF
:1036A0002846FEF721FE204604F0B2FB226853694B
:1036B00003F40053536152E62046FFF7C5FD22682C
:1036C000536903F00803536150E600212046FFF7D9
:1036D000BFFD2268536903F4801353614DE6002156
:1036E0002046FFF7B4FD2268536903F400135361C9
:1036F0004AE62046FFF7ADFD2268536903F0804398
:10370000536148E6204604F0ABFB51E690F8BC3329
:10371000012B0DD010B50446012380F8BC3380F88E
:1037200038100068FFF77BFA002084F8BC0310BD56
:103730000220704738B505468C4611F0800F29D11C
:1037400001F00F0ECEEBCE04A40004F5FC7404448B
:10375000211DCEEBCE0E00EB8E0E00208EF8FD016B
:103760000CF00F0C81F800C08A60CB704A780AB167
:10377000A1F806C0022B1DD095F8BC33012B1CD03C
:10378000012385F8BC332868FEF746FF002085F842
:10379000BC0338BD01F00F00C0EBC0018900383117
:1037A00029440431C0EBC00005EB8000012480F8FF
:1037B0003D40D5E700230B71DEE70220E9E710B5B5
:1037C00004460A4611F0800F20D101F00F00C0EB33
:1037D000C0039B0003F5FC732344191DC0EBC0001C
:1037E00004EB8000002380F8FD3102F00F020A7024
:1037F00094F8BC33012B19D0012384F8BC33206822
:10380000FEF758FF002084F8BC0310BD01F00F0044
:10381000C0EBC0039B0038332344191DC0EBC0002C
:1038200004EB8000012380F83D30DEE70220ECE766
:1038300010B501F00F04C4EBC401890001F5FC715F
:1038400001440431C4EBC40C00EB8C0CCCF808220E
:10385000CCF810320023CCF814328CF8FD318CF8FF
:10386000FC410369012B06D064B9DAB20068FEF7A7
:1038700091FF002010BDC4EBC40C00EB8C0CCCF805
:103880000C22F1E7DAB20068FFF72AF8F1E701F05D
:103890000F01C1EBC10100EB8101D1F814027047A7
:1038A00010B501F00F04C4EBC401890038310144A4
:1038B0000431C4EBC40C00EB8C0CCCF84820CCF8E1
:1038C00050300023CCF8543001238CF83D308CF874
:1038D0003C400369012B06D064B9DAB20068FEF7F8
:1038E00059FF002010BDC4EBC40C00EB8C0CCCF8CD
:1038F0004C20F1E7DAB20068FEF7F2FFF1E738B5E5
:1039000001F00F054268954239D804460B4611F084
:10391000800F1FD1C1EBC101890001F5FC71014489
:103920000431C3EBC30300EB8303002283F8FD21C2
:1039300001238B700D7094F8BC33012B21D001232F
:1039400084F8BC332068FFF70FF98DB1002084F8AC
:10395000BC0338BDC5EBC5018900383101440431D1
:10396000C5EBC50300EB8303012283F83D20DFE7AD
:1039700004F57172217C2068FFF7C2F9E6E70120A7
:10398000E7E70220E5E701F00F034268934231D8F0
:1039900010B5044611F0800F1ED1C3EBC30189009E
:1039A00001F5FC7101440431C3EBC30200EB820258
:1039B000002082F8FD0100228A700B7094F8BC335D
:1039C000012B19D0012384F8BC332068FFF7F9F8E4
:1039D000002084F8BC0310BDC3EBC301890038315B
:1039E00001440431C3EBC30200EB8202012082F8E0
:1039F0003D00E0E7012070470220ECE710B40468C6
:103A0000606A31B940EA0240A06200205DF8044BD0
:103A100070478C46A36A00EB1340002308E003F1D3
:103A2000400104EB8101496800EB11400133DBB236
:103A30000CF1FF318B42F2D340EA02400CF13F011E
:103A400004EB81014860E0E7036859620020704799
:103A5000034602680121C0F8FC13002083F8F40338
:103A6000936943F000639361516D024B0B435365BF
:103A7000704700BF0300001070470000744B1B69C3
:103A800003F03803102B00F0DE80182B10D00BB1A0
:103A9000704870476E4B1B6813F0200F00F0D58004
:103AA0006B4B1868C0F3C1006B4B23FA00F07047F2
:103AB00010B4674A916A01F00301946AC4F30510D7
:103AC000D36A03F0010C536BC3F3CC030CFB03F379
:103AD00007EE903AF8EE677A14F47C7F00F093805A
:103AE000012965D0022900F09180E1B107EE100AAA
:103AF000F8EE476A9FED596A86EE267A544B1B6BA7
:103B0000C3F3080306EE903AF8EE666A9FED546A36
:103B100067EE867A76EEA77AF7EE006A77EEA67AF7
:103B200027EE277A60E0136813F0200F23D01146A8
:103B30001268C2F3C102484BD34007EE103AF8EEC8
:103B4000476A07EE100AB8EE476A86EE867A0B6B74
:103B5000C3F3080306EE903AF8EE666A9FED406AFA
:103B600067EE867A76EEA77AF7EE006A77EEA67AA7
:103B700027EE277A38E007EE100AF8EE476A9FED45
:103B8000396A86EE267A324B1B6BC3F3080306EEC6
:103B9000903AF8EE666A9FED326A67EE867A76EEC4
:103BA000A77AF7EE006A77EEA67A27EE277A1BE06F
:103BB00007EE100AF8EE476A9FED286A86EE267A2D
:103BC000234B1B6BC3F3080306EE903AF8EE666ACC
:103BD0009FED236A67EE867A76EEA77AF7EE006AA3
:103BE00077EEA67A27EE277A194B1B6BC3F3462391
:103BF000013307EE903AF8EE677AC7EE276AFCEEDB
:103C0000E67A17EE900A5DF8044B704707EE100A4B
:103C1000F8EE476A9FED146A86EE267A0C4B1B6B12
:103C2000C3F3080306EE903AF8EE666A9FED0C6A5D
:103C300067EE867A76EEA77AF7EE006A77EEA67AD6
:103C400027EE277AD0E7094870470348704700BF3E
:103C50000044025800093D000090D0030024744A3B
:103C6000000000390024744C20BCBE4B40787D011C
:103C700008B5FFF703FF0B4A9369C3F303230A490F
:103C8000CB5C03F01F0320FA03F3926902F00F02EA
:103C9000885C00F01F0023FA00F0044A1060044A18
:103CA000136008BD00440258B4CB00080400002093
:103CB0000000002010B5EFF3108272B61B4B1C6899
:103CC00064B1EFF305831A4909680B430AD1194B14
:103CD0009C420BD070B982F3108806E082F3108802
:103CE000132002E082F31088132010BD82F31088A5
:103CF0001320FAE7104B1B681BB182F310881320C6
:103D0000F3E7042323630123A3630023C4F884306F
:103D1000E06409490B6801330B6082F31088204688
:103D200001F036F9D4F88400DFE700BFF00F00207F
:103D3000080000203C110020001000203F4B98425A
:103D400000D0704770B582B0002556E03C4B1A6831
:103D50003C4B1A6065E001912BE0A368E56861685F
:103D60002160002930D0C4F818D02461009436496D
:103D70000C6082F310880BB128469847EFF3108649
:103D800072B6314B00221A60009BA3421FD086F30B
:103D90001088EFF3108272B6019CECB12369002108
:103DA00000919C42D7D0616959610B6101A9996169
:103DB00001932368202BD0D9203B2360C4F818D06E
:103DC000246100940023D2E70021A161CFE7A26122
:103DD000204601F065F8DAE71C4B1B68002B29D15F
:103DE0001B4803230363012383631A490B680133D0
:103DF0000B6082F3108801F0CBF8EFF3108172B6FC
:103E0000104B1A68136801930BB101A89861002345
:103E100013600C4A1368043313600F4A126893420C
:103E200094D00A4B00221A6081F31088EFF31082BD
:103E300072B6B1E782F31088DFE700BF4D49544105
:103E40002811002094100020A010002098100020BD
:103E50003C110020001000202411002048B108B5BA
:103E60000168054A914201D00E2008BD00F00AFB0E
:103E7000FBE70E20704700BF4452485410B5EFF3E3
:103E8000108372B61B4A846E944202D083F310886A
:103E900010BDD0F8AC208A42F8D1C26E002AF5D00D
:103EA000154914688C42F1D111690029EED0002126
:103EB000816611690139116191B9D160026B062ADD
:103EC000E4D10D22C0F884200C490A6801320A604E
:103ED00083F3108801F02AFAEFF3108372B6D5E766
:103EE000016F446F4C672167D4688442E6D1D1608A
:103EF000E4E700BF7D3E0008414D4553001000201F
:103F000008B5064B1B682BB1EFF30583044A126812
:103F1000134300D008BD00F011FAFBE7F00F0020BA
:103F20000800002010B40023036043608360C36076
:103F300003614361836141608260EFF3108272B676
:103F40000C4B03600C4B1B6863B90C490860406163
:103F50008061013308490B6082F3108800205DF80E
:103F6000044B7047054909688C6988616061846108
:103F70004161EEE7414D4553DC0F0020E00F00208A
:103F8000EFF3108372B6024A106883F3108870470B
:103F9000F00F00202DE9F041DDF818C0079F089EC2
:103FA000099DDDF82880EFF3108E72B609B1846A9E
:103FB0000C600AB1016B11600BB142681A60BCF170
:103FC000000F03D0D0F89430CCF8003017B1D0F8FF
:103FD00098303B600EB18369336015B1D0F88830FA
:103FE0002B60B8F1000F02D0036FC8F800308EF3D9
:103FF00010880020BDE8F08138B5EFF3108272B66A
:10400000194B1B68046BE4B9EFF30581174D2D685C
:10401000294301D183420ED0032303630123836329
:104020000023C36412490B6801330B6082F31088CC
:1040300000F0AEFF12E00E4B1B68002BECD01424F6
:104040000AE0022C07D0012C0AD0032C0AD001234D
:104050004363002400E0142482F31088204638BD16
:104060001424F9E70024F7E7F00F002008000020EF
:1040700000100020EFF3108272B6036B012B05D005
:10408000022B03D082F310881120704700230360B5
:104090000D490B68013B0B6033B90C4B00211960D3
:1040A00082F3108800207047D0F88830D0F88C1048
:1040B000C3F88C10C1F88830044909688142EFD1F7
:1040C00002490B60ECE700BFE80F0020EC0F002076
:1040D00038B50346EFF3108C72B63D4A1468806819
:1040E00000BB01229A60DC607CB11A69012A0FD002
:1040F000D4F8A4208AB1116B1363CB621963DA621E
:10410000D4F8A0300133C4F8A0308CF3108838BD47
:10411000E26A5A6120229A62EAE7C4F8A430DB62BC
:104120001B63EDE7DA68A24228D000294BD029486A
:10413000006848BB2848A066E366D4F8AC000130AC
:10414000C4F8AC00D86918BB9C6124676467D8695F
:104150000130D8610D2020630120A063E1641D4877
:104160000168013101608CF310881969012916D0AA
:10417000204600F00DFFD4F88400C8E701309860B5
:104180008CF310880020C2E78CF310881D20BEE756
:1041900098692067456F65672C674467D7E7986A19
:1041A000E16A884200D99962E36AD2F89C108B4296
:1041B00001D2C2F89C30D36AE16A8B42D8D910464A
:1041C00000F08CFFD4E78CF310881D209FE700BF20
:1041D000F00F002000100020B943000838B5034656
:1041E000EFF3108572B60022026020490A68013A96
:1041F0000A6072B91E4A002111601E490A68013224
:104200000A60D8680022DA601C691A6185F3108898
:104210001DE04269816991614A61154909688142DD
:10422000EBD113490A60E8E7013CEFF3108172B665
:10423000002383660123C0F88430056F0D4A13689C
:104240000133136081F3108801F070F82846002CC8
:10425000EAD1EFF3108172B6064A1368013B13608E
:1042600081F3108800F0CCFF002038BDDC0F002067
:10427000E00F002000100020F8B50E461546074656
:10428000002842D0342B03D01C20002843D0F8BD96
:10429000EFF3108172B6234A13680133136081F380
:1042A0001088214B1C68002320480068984204D9DC
:1042B000BC4202D0246A0133F6E7EFF3108172B6F4
:1042C000184A1368013B136081F3108800F098FFCF
:1042D000BC421CD0012D00D0DDB9154B1A68154B1E
:1042E0009A4210D00020EFF30583134A126813435B
:1042F000CBD0EFF30582104B1B681343B3F1F03FB3
:10430000C3D21320C3E71320EDE71C20BDE71C2018
:10431000BBE71F20B9E72A463146384600F0D6FBF6
:10432000B5E700BF00100020D00F0020CC0F002008
:10433000F00F00203C1100200800002010B4194BA1
:104340001B68EFF3108072B6D969174A1160DA6AF8
:10435000196A994205D0154C44F8221014491C6A78
:104360000C6014490968914204D2104A52F8211095
:104370000F4A116080F310880D4A12689A420DD0DE
:104380004FF0E0234FF08052C3F8042DEFF3058384
:1043900023B9EFF3108362B683F310885DF8044B02
:1043A000704700BFF00F0020EC1500200410002023
:1043B000F40F0020F80F002010B5EFF3108372B651
:1043C0001B4A846E944202D083F3108810BDD0F84B
:1043D000AC208A42F8D1C26E002AF5D01549146883
:1043E0008C42F1D1D1690029EED000218166D169DA
:1043F0000139D16191B99161026B0D2AE4D11D227D
:10440000C0F884200C490A6801320A6083F31088DE
:1044100000F08CFFEFF3108372B6D5E7016F446FA5
:104420004C67216794698442E6D19161E4E700BF5B
:10443000B94300084554554D0010002010B50446FE
:10444000EFF3108372B60E490A6801320A600BE07E
:104450000122826083F3108800F036F9EFF31083B5
:1044600072B6D4F8A40020B1D4F8A4000028EFD18B
:10447000F9E703490A68013A0A6083F3108810BD1E
:104480000010002038B5EFF3108272B6036B032BD7
:1044900006D0436B012B22D0122082F3108838BD46
:1044A000EFF30581104B1B680B43B3F1F03F06D3CC
:1044B0000E4B1C688CB1E56BE36AE36301E00025F9
:1044C0002C460B490B6801330B6082F3108800F017
:1044D0002DFF04B1E5630020E1E70025F1E70023AB
:1044E00043631920D9E700BF08000020F40F002023
:1044F00000100020836953B10269904208D04169DD
:1045000051610A611968814208D0002383617047B4
:104510001A688242F9D100221A60F6E793611A60A4
:10452000F3E700002DE9F04786B00E9E00287DD00D
:10453000894690469A460746149BB02B03D00E201E
:1045400006B0BDE8F087EFF3108172B6404A1368F9
:104550000133136081F310883E4B1C680F9B5A1E79
:1045600032440020014602E0D4F8884001303A4B42
:104570001B68834212D9BC4210D079B9E568B542B4
:1045800004D82369B34201D9012100269542EBD812
:1045900023699342E8D901210026E5E7EFF3108172
:1045A00072B62B4A1368013B136081F3108800F048
:1045B00027FEBC423CD0002E3CD0B8F1000F3BD0CF
:1045C0000F9BC72B3AD9109B1F2B39D8119A9342B6
:1045D00038D3139B012B37D8204B1A68204B9A42B3
:1045E00022D00020EFF305831E4A1268134307D040
:1045F000EFF305821B4B1B681343B3F1F03F25D348
:1046000000289DD1139B0593129B0493119B039348
:10461000109B02930F9B01930096534642464946D6
:10462000384600F0BDFA8BE71320DBE70E2087E762
:104630000E2085E7032083E7032081E705207FE73D
:104640000F207DE718207BE7102079E7132077E71C
:1046500000100020EC0F0020E80F0020F00F0020D9
:104660003C1100200800002008B5EFF3108172B65D
:10467000044A13680133136081F31088024800F084
:1046800055FE08BD001000203C110020C0B110B53F
:1046900086B084460B48DCF80040844202D00E20ED
:1046A00006B010BD0C9804900B9803900A980290E5
:1046B00009980190089800906046FFF76BFCEFE7BF
:1046C0000E207047445248542DE9F041EFF3108317
:1046D00072B68568002D00F0F5800446C2687C49FA
:1046E00009688A4202D07B49096831B1013DA56061
:1046F0003DB183F310880025E7E083F310881E2581
:10470000E3E0002A47D0D2F8A0100139C2F8A01087
:10471000002943D1C2F8A410A169002949D0D2F8D8
:104720009470216901294DD0E269012A02D92269D8
:10473000012A6BD0A669002E78D02269012A00F0E8
:1047400093804FF00008D6F8A020002A40F0938014
:10475000C6F8A440E46224630132C6F8A020012216
:10476000A260E660E269013AE261002A40F08B80D3
:10477000A2610022B266C6F8842056490A68013256
:104780000A6083F310882369012B00F08280304691
:1047900000F0CCFD99E083F3108896E0E16A206B8D
:1047A0000863C162D2F8A400A042B5D1C2F8A41037
:1047B000B2E721690029B2D10022E26083F31088B8
:1047C0000D4682E0434801680131016083F310889F
:1047D000D2F8A4000346202602E0DB6A984208D003
:1047E0003BB119690129F8D1996AB142F5D20E4657
:1047F000F3E7EFF3108372B63648016801390160C0
:10480000C2F89C60BE428FD237468DE7314E326887
:104810000132326083F31088204600F0BFFEEFF3D0
:10482000108372B63268013A326083E729490A6818
:1048300001320A6083F310882023A362E068C36A10
:10484000BB420DD1EFF3108172B6224A1368013BCF
:1048500013600023E36081F3108800F0D1FC34E0A2
:10486000394600F03BFCEDE7D4F80C80F26A626157
:104870002022A26267E7D6F8A410086B0C63C4621A
:104880002063E16268E7326FA261716F51670A6766
:104890006FE7E3694BB9D8F82C30BB423FF477AFF0
:1048A0003946404600F01AFC71E7204600F076FEDB
:1048B000EFF3108272B6A3690BB1DB6AA36282F3D5
:1048C0001088E8E783F310881E252846BDE8F081AC
:1048D000F00F00200010002010B50F4B1B6813F1E3
:1048E0000F3F0CD10C4C4FF0F03323600B4B18688A
:1048F000FBF770FE00232360FBF712FD10BD064B93
:104900004FF0F0321A60FBF7CBFD00F011F9044ACA
:10491000136801331360E5E708000020C80F00208A
:104920000010002010B5114B1C68636CA06C9847F8
:104930000F4B1B680BB120469847EFF3108172B6FE
:1049400001232363A3630023E3640A4A136801334A
:10495000136081F31088EFF3148323F0040383F3CF
:104960001488204600F014FB10BD00BFF00F00209B
:10497000FC0F00200010002038B50346EFF3108133
:1049800072B6026932B982680132826081F310889E
:10499000002038BDC068013A0FD10024DC601A61E4
:1049A00000238366C0F88430074A1368013313601C
:1049B00081F3108800F0BAFCEAE7046FDC60456F11
:1049C00065672C67EBE700BF00100020B8B108B5A1
:1049D000034600680D4A904201D00C2008BD51B139
:1049E000EFF305820A48006802430AD1094A1068B9
:1049F000094A904207D0184600F008FAEEE70C206A
:104A000070470420EAE70420E8E700BF414D455322
:104A100008000020F00F00203C110020EFF310836D
:104A200072B6024A106883F310887047381100206C
:104A300048B108B50168054A914201D00C2008BD73
:104A4000FFF79AFFFBE70C20704700BF414D45532D
:104A500008B5EFF30583094A1268134309D150B131
:104A60000268074B9A4201D00E2008BDFFF702FBF7
:104A7000FBE71320F9E70E20F7E700BF080000204E
:104A800044524854A0B108B501680C4A914201D083
:104A90000C2008BDEFF30582094909680A4309D1D2
:104AA000084A1168084A914206D0FFF797FBF0E7E1
:104AB0000C2070471320ECE71320EAE7414D4553E3
:104AC00008000020F00F00203C11002070B50446C3
:104AD0000E4615463422002105F09AFA66602561DB
:104AE000EFF3108272B60D4B23600D4B0D49196028
:104AF0000D4B1B6853B90D490C602462646201338D
:104B000009490B6082F31088002070BD07490968CD
:104B1000486A4C62046260622162F0E74554554D78
:104B2000FC0F00203D440008CC0F0020D00F0020D7
:104B300008B500F0E1F900F081FB00230C4A136096
:104B40000C4A13600C4A13600C4A13600C4A136041
:104B50000C4A13600C4A13600C4A13600C4A136031
:104B60000C4A13600C4A13600C4A136008BD00BF66
:104B7000E00F0020DC0F0020D80F0020D40F002011
:104B8000C40F0020C00F0020B40F0020B00F002081
:104B9000BC0F0020B80F0020D00F0020CC0F002049
:104BA0002DE9F84F04468A46914698460A9D0B9E89
:104BB0000C9FDDF838B03246EF21284605F028FA80
:104BC000B0220021204605F023FAC4F828A0C4F83A
:104BD0004490C4F84880E5606661E762C4F8947068
:104BE000C4F818B0C4F81CB02023C4F89C30013EAF
:104BF000354425610D9B9F422FD0032323632D4B0A
:104C00006365A4652C492046FBF76AFBEFF310812E
:104C100072B62A4B23602A4B1B6813BB294A1460C7
:104C2000C4F88840C4F88C400133254A1360264AF2
:104C30001368013313600F9B012B2BD1EFF3058217
:104C4000224B1B681343B3F1F03F17D3204B1D6871
:104C5000F5B1EE6BEB6AEB6312E0E763C4F89870B2
:104C6000CBE7184A1268D2F88C00C2F88C40C0F822
:104C70008840C4F88C00C4F88820D5E70026354663
:104C800081F31088204600F051FB85B1EE630EE001
:104C90000026F5E781F31088EFF3108172B60A4A17
:104CA0001368013B136081F3108800F0A9FA00201B
:104CB000BDE8F88F5D4F000825490008445248546C
:104CC000E80F0020EC0F002000100020080000205A
:104CD000F40F0020F8B50E461746054600283CD0D4
:104CE0001C2B03D00C2000283DD0F8BDEFF3108121
:104CF00072B6214A13680133136081F310881F4B89
:104D00001C6800231E480068984204D9AC4202D0B7
:104D100064690133F6E7EFF3108172B6164A13683F
:104D2000013B136081F3108800F06AFAAC4216D0A0
:104D3000144B1A68144B9A4213D0EFF30583134AAD
:104D400010681843CFD0EFF30582104B1B68134354
:104D5000B3F1F03F0DD30020C5E70C20C3E70C20D2
:104D6000C1E71320BFE73A4631462846FFF7DAF895
:104D7000BBE71320B9E700BF00100020E00F0020C0
:104D8000DC0F0020F00F00203C1100200800002064
:104D900088B108B50168094A914201D00E2008BDCA
:104DA000EFF30582064909680A4301D01320F6E7AC
:104DB00000F04CFBF3E70E20704700BF445248540C
:104DC00008000020C8B108B5034601680D4A9142A9
:104DD00001D01C2008BDEFF305820B4909680A4386
:104DE00007D0EFF30581084A12680A43B2F1F03F99
:104DF00005D31846FFF768FCECE71C20704713202A
:104E0000E8E700BF4554554D0800002038B5EFF3E2
:104E1000108272B683682BB1013B836082F31088E5
:104E2000002038BD002930D01A4B1B6813BB1A4B29
:104E30001C681A4BA366E066D4F8AC300133C4F8A2
:104E4000AC300369D3B9C460246764670369013374
:104E50000361062323630123A363E1640D490B6807
:104E600001330B6082F31088204600F091F8D4F8EB
:104E70008400D6E782F310880D20D2E7C368236749
:104E80005D6F65672C675C67E0E782F310880D2033
:104E9000C7E700BF00100020F00F00207D3E000893
:104EA000036823B1B3F1FF3F01D0826902B17047BB
:104EB000202B15D8013B0D4A126802EB83030C4AE4
:104EC00012689A4203D89B1A0A4A126813441A6855
:104ED00042B1516908615061026141618361E6E755
:104EE0001F23E8E7006140611860F7E79410002095
:104EF000241100202811002010B500240D4B1C6047
:104F00000D4B1C600D4B1C600D4B20221A60802243
:104F100021460C4805F07CF80B4B1C600B4B1C60C9
:104F20000B4B1C600B4B1C600B4A136843F08573E2
:104F3000136010BDF00F0020F40F0020841000203B
:104F4000F80F002004100020EC0F0020E80F0020D4
:104F500000100020FC0F0020E40F002008B5EFF344
:104F6000108272B6036B042B07D0836ED0F8AC109E
:104F700082F3108803B1984708BD04490B680133D8
:104F80000B6082F3108800F0D1F9F5E700100020E3
:104F900070B504464A4B1D68EFF3108672B6854221
:104FA0001ED0484A1368013B1360A36B012B24D029
:104FB00086F31088444B1B68AB4210D0414B1B68F2
:104FC0006BB94FF0E0234FF08052C3F8042DEFF39C
:104FD000058323B9EFF3108362B683F3108870BDA5
:104FE000C36C13B1B3F1FF3F03D1E269374B1A60D1
:104FF000D7E74C30FFF754FFF7E70023A363E26ADB
:10500000236A9C422CD0616A59620B62304951F884
:105010002210A14220D02C4B1B68A342C8D12D4B9B
:105020001A682B4B53F82220274B1A6086F31088FE
:10503000244B1B68002BD2D14FF0E0234FF080525D
:10504000C3F8042DEFF30583002BC8D1EFF31083D1
:1050500062B683F31088C2E71D4941F82230DAE7CF
:105060001B4B002143F82210012393401A490A6880
:1050700022EA03020A6032B192FAA2F2B2FA82F292
:10508000144B1A60C7E7134B20221A600E4B002204
:105090001A6086F310880B4B1B68002B9FD14FF0D2
:1050A000E0234FF08052C3F8042DEFF30583002B6B
:1050B00095D1EFF3108362B683F310888FE700BFBA
:1050C000F00F002000100020F40F0020EC1500204D
:1050D00004100020F80F002084100020F8B50446CA
:1050E0000D46EFF3108372B6026B52B1E162D0F855
:1050F00098208A4203D2C26383F31088F8BDE1632B
:10510000FAE7244A1668C76A23490A6802320A6025
:105110000E220263012282630022C26483F310889C
:10512000FFF736FFEFF3108272B6E562D4F89830DD
:10513000AB4217D2E36382F31088204600F0F6F802
:10514000EFF3108272B6134B1B689C4207D0216BA1
:1051500029B9E16ADB6A99420ED8B44204D082F3DD
:105160001088CBE7E563E6E70A4B1C60AF42F6D256
:105170000A4B43F82140F2E7E06B8142EFD98342CA
:10518000EDD3044B1C60AF42E9D2044B43F82140FD
:10519000E5E700BFF40F00200010002004100020FD
:1051A000114B1B68EFF3108272B6104900200860A3
:1051B00063B1196B51B9D96999610D480160196AD8
:1051C000994203D0D86ADB6B984202D082F31088F0
:1051D0007047084B43F820100749096853F821101D
:1051E000064B1960F2E700BFF00F00209C10002072
:1051F000EC15002004100020F80F0020F40F002010
:105200000B4B1B689BB90B4B1A680B4B1B689A42E4
:105210000DD04FF0E0234FF08052C3F8042DEFF390
:10522000058323B9EFF3108362B683F310887047C8
:1052300000100020F00F0020F40F002030B587B0E0
:1052400000241F4B1C601F4B1C601F4B1C601F4B1E
:105250001C601F4B1C601F4D80222146284604F015
:10526000D7FE1D4B1D601D4B1D601D4B05F17C02C3
:105270001A6080351D601B4B1B4A1A601B4B4FF494
:1052800080621A601A4B1C60194B1B680022059241
:10529000049203930293154B1B680193114B1B68F7
:1052A0000093144B144A15491548FFF779FC002860
:1052B000EAD10023134A1360134A136007B030BDCC
:1052C00038110020EC1500209C10002098100020C0
:1052D000A0100020A410002028110020941000200D
:1052E0002411002034110020EC1100203011002086
:1052F0002C1100204D4954413D3D000804CC0008CC
:105300003C110020901000208C10002048B108B5FE
:105310000168054A914201D00E2008BDFEF76CFEDF
:10532000FBE70E20704700BF4452485438B504468E
:10533000EFF3108572B6436EDBB14C30FFF7DAF84D
:105340003C4A1368013B1360A36B002B63D1236BB2
:10535000002B46D0636B002B3FD12363E26A364BB0
:1053600053F8223043B15A6A14625C62626223626B
:1053700037E00023C364E3E72F4B43F82240246265
:105380006462012303FA02F12C4803680B430360B3
:105390002B4B1B68934224D9294B1A60294B1B685D
:1053A000C3B1DB6B93421CD9264B1C6085F310887C
:1053B000204B1B6873BB4FF0E0234FF08052C3F8C3
:1053C000042DEFF305832BBBEFF3108362B683F359
:1053D00010881FE01B4B1C6003E000236363032362
:1053E0002363194B1B6885F31088164A12689A428A
:1053F00010D0104B1B686BB94FF0E0234FF0805278
:10540000C3F8042DEFF3058323B9EFF3108362B6DD
:1054100083F3108838BD236B012BE2D0022BE0D040
:10542000636B13B9A3632363DBE700236363032385
:105430002363D6E700100020041000208410002011
:10544000F80F0020F40F0020F00F002038B50446BC
:10545000EFF3108572B64C30FFF74CF8236B022B3C
:105460004BD0012B00F08F8048490A6801320A6056
:10547000002B4CD1022323630123A3630023E364A5
:105480000B6801330B6085F31088EFF30583404A06
:105490001268134303D13F4B1B68A34230D04FF037
:1054A000E023D3F8343F13F0010F0CD0EFF3148353
:1054B00003F00403B0EE400A2BB9EFF3148323F09A
:1054C000040383F314882046FFF762FDEFF3108393
:1054D00072B683F31088304B1B680BB12046984797
:1054E000EFF3108172B6294A1368013B136081F310
:1054F0001088FFF785FE002038BD85F31088F8E797
:10550000EFF3148323F0040383F31488DBE702230F
:1055100023630123A363A36ED4F8AC1085F3108832
:105520000BB120469847EFF3108372B60022A263B6
:1055300083F31088EFF30583154A1268134303D1F0
:10554000144B1B68A34217D04FF0E023D3F8343F2D
:1055500013F0010F0CD0EFF3148303F00403B0EE4B
:10556000400A2BB9EFF3148323F0040383F3148868
:10557000EFF3108372B6ACE7EFF3148323F0040368
:1055800083F31488F4E785F31088B2E70010002055
:1055900008000020F00F0020FC0F002070B5EFF392
:1055A000108C72B6C469012C09D9022C0BD0836906
:1055B0001A6F214D29680131296019461BE08CF3CF
:1055C0001088002070BD83691A6FD16ADB6A994226
:1055D00000D282618CF31088F3E796468CF3108832
:1055E000EFF3108C72B683698B420AD0C4691A6FCC
:1055F00019468A420BD0D56ADE6AB542EDD39E4683
:10560000ECE7C569A542F1D1126F7346F1E70A4C88
:105610002268013A22608B4209D01C6F5A6F626780
:1056200014674A6F19675A6713674B6783618CF376
:105630001088FFF7E5FDC4E70010002008B502461A
:1056400010B30068164B984202D01C2010B308BD5E
:1056500051B1EFF3058313480068034316D1124B91
:105660001868124B984213D0EFF305800D4B1B685E
:105670001843EBD0EFF305800A4B1B680343B3F1EB
:10568000F03F0BD30020E1E71C20DFE70420DDE73B
:105690000420DBE71046FEF71BFDD8E71320D6E712
:1056A0004554554D08000020F00F00203C1100200B
:1056B000F8B52B4B1C6804F18C06D4F89820002315
:1056C0001370D4F89820537010F003050AD004F139
:1056D0005C07022D21D0A3693A4614212046984741
:1056E00000202CE0B1F5704F36D01D4B1B68D3F86D
:1056F000A431022B0CD01A4B1B68D3F8AC316BB31E
:10570000D4F89820137843F00203137002250EE0BA
:10571000D4F8983001221A70EDE7A36921F08002D5
:10572000152120469847FF280FD0012808D00323D1
:10573000C4F8B4302A462946304600F0DFFBF8BDF5
:10574000D4F8983001221A70F1E7A3693A4614217F
:10575000204698470020F2E70125E8E70225E6E722
:10576000F01500202DE9F04F8FB0674BD3F8008083
:10577000446A24B1FF2528460FB0BDE8F08F0546E6
:1057800090F8546090F855B0563001F002FA814616
:1057900005F1580001F0FDF9074605F15A0001F046
:1057A000F8F98246ABF10603012B14D906F0600329
:1057B000402B1AD0402B18BF202B3CD0BBF10C0F34
:1057C00000F29E80DFE80BF05B699C709C77819C07
:1057D000888C91969E004FEA192313F0600FE5D054
:1057E00026F0600646F02006E0E7474A1268D2F845
:1057F000C8115945DED14FF480730293D2F8CC61C1
:1058000002AB0193EB68009353463A46494658462B
:10581000B047054648B90323C8F8B4305246029948
:1058200008F18C0000F06AFBA5E708F15C0000F0CD
:10583000BFFB25469FE704230393FF2503E0FBB24C
:10584000A34206D001340F2C12D806F00303012B1B
:10585000F5D02D4B1B6804F1580253F82230002B71
:10586000F0D00B935B6C03A8984705460028E9D15C
:10587000002D80D008F15C0000F09AFB7BE75246D7
:1058800039463046FFF714FF0546002D3FF473AF4D
:1058900008F15C0000F08CFB6DE73A464946304663
:1058A00000F0F8FA0546F0E73A464946304600F07F
:1058B000BFFD0546E9E7C8F81490D8F818304A4605
:1058C0001121404698470546DFE75246394648468B
:1058D00000F056F80546D8E700F096FD0546D4E7F7
:1058E000484600F0ADF90546CFE7384600F0D8FE4F
:1058F0000546CAE74946384600F0CEFD0546C4E7EE
:105900005425C5E7254636E7F015002070B58CB064
:105910001A4B1D682B6A032B11D02B6A012B25D043
:10592000FF240023C5F8EC302B62144B1B68D3F81E
:10593000C4310BB10A20984720460CB070BDD5F891
:10594000104104E0266B204600F07CFA344654B146
:1059500003230193039463680993002BF2D05B6CDB
:1059600001A89847EEE701232B62D6E7AB6905F162
:105970005C020F21284698470446D2E7F015002024
:105980002DE9F04F8DB017469A4B1E6806F15C0A60
:1059900006F18C080323C6F8B4305FFA80F9C0F32F
:1059A0000724631E0E2B00F21E81DFE813F00F00A8
:1059B000470099001C011C01130047001C01340022
:1059C0001C011C011C011C011C014700122F20D8C6
:1059D0003D4600E03D46062C14BF002301230A2F5C
:1059E00098BF0023CBB9092C14BF00230123052F36
:1059F00098BF002303B10525D6F82811D6F82C212D
:105A00000A44914216D208784B78A34207D0014449
:105A1000F7E71225DFE73D46E5E70A25E3E72A46F3
:105A2000D6F8980001F002F83A462946404600F0C0
:105A300065FA00E0FF200DB0BDE8F08F072C06D01E
:105A4000D6F82851D6F82C112944002009E0D6F8C0
:105A50003051D6F834112944F7E76A780F2A0CD070
:105A60001D448D422BD22B780F2CF6D06A78022A57
:105A7000F6D148451AD00130F2E76B4604225E4960
:105A8000284600F0A4FFDDF80890B94500D3B946D8
:105A9000B9F5807F15D912220921022000F07CFE81
:105AA000B3695246142130469847C4E704AB082234
:105AB0005249284600F08BFFDDF81890E5E7FF20FB
:105AC000B9E74A462946D6F8980000F0AFFFD6F865
:105AD00098305C703A464946404600F00FFAAAE713
